{
  "contractName": "ExampleTokenCrowdsale",
  "abi": [
    {
      "inputs": [
        {
          "internalType": "uint256",
          "name": "_rate",
          "type": "uint256"
        },
        {
          "internalType": "address payable",
          "name": "_wallet",
          "type": "address"
        },
        {
          "internalType": "contract ERC20",
          "name": "_token",
          "type": "address"
        },
        {
          "internalType": "uint256",
          "name": "_cap",
          "type": "uint256"
        },
        {
          "internalType": "uint256",
          "name": "_openingTime",
          "type": "uint256"
        },
        {
          "internalType": "uint256",
          "name": "_closingTime",
          "type": "uint256"
        },
        {
          "internalType": "uint256",
          "name": "_goal",
          "type": "uint256"
        }
      ],
      "stateMutability": "nonpayable",
      "type": "constructor"
    },
    {
      "anonymous": false,
      "inputs": [],
      "name": "CrowdsaleFinalized",
      "type": "event"
    },
    {
      "anonymous": false,
      "inputs": [
        {
          "indexed": false,
          "internalType": "uint256",
          "name": "prevClosingTime",
          "type": "uint256"
        },
        {
          "indexed": false,
          "internalType": "uint256",
          "name": "newClosingTime",
          "type": "uint256"
        }
      ],
      "name": "TimedCrowdsaleExtended",
      "type": "event"
    },
    {
      "anonymous": false,
      "inputs": [
        {
          "indexed": true,
          "internalType": "address",
          "name": "purchaser",
          "type": "address"
        },
        {
          "indexed": true,
          "internalType": "address",
          "name": "beneficiary",
          "type": "address"
        },
        {
          "indexed": false,
          "internalType": "uint256",
          "name": "value",
          "type": "uint256"
        },
        {
          "indexed": false,
          "internalType": "uint256",
          "name": "amount",
          "type": "uint256"
        }
      ],
      "name": "TokensPurchased",
      "type": "event"
    },
    {
      "inputs": [
        {
          "internalType": "address",
          "name": "beneficiary",
          "type": "address"
        }
      ],
      "name": "buyTokens",
      "outputs": [],
      "stateMutability": "payable",
      "type": "function",
      "payable": true
    },
    {
      "inputs": [],
      "name": "cap",
      "outputs": [
        {
          "internalType": "uint256",
          "name": "",
          "type": "uint256"
        }
      ],
      "stateMutability": "view",
      "type": "function",
      "constant": true
    },
    {
      "inputs": [],
      "name": "capReached",
      "outputs": [
        {
          "internalType": "bool",
          "name": "",
          "type": "bool"
        }
      ],
      "stateMutability": "nonpayable",
      "type": "function"
    },
    {
      "inputs": [
        {
          "internalType": "address payable",
          "name": "refundee",
          "type": "address"
        }
      ],
      "name": "claimRefund",
      "outputs": [],
      "stateMutability": "nonpayable",
      "type": "function"
    },
    {
      "inputs": [],
      "name": "closingTime",
      "outputs": [
        {
          "internalType": "uint256",
          "name": "",
          "type": "uint256"
        }
      ],
      "stateMutability": "view",
      "type": "function",
      "constant": true
    },
    {
      "inputs": [
        {
          "internalType": "address",
          "name": "",
          "type": "address"
        }
      ],
      "name": "contributions",
      "outputs": [
        {
          "internalType": "uint256",
          "name": "",
          "type": "uint256"
        }
      ],
      "stateMutability": "view",
      "type": "function",
      "constant": true
    },
    {
      "inputs": [],
      "name": "finalize",
      "outputs": [],
      "stateMutability": "nonpayable",
      "type": "function"
    },
    {
      "inputs": [],
      "name": "finalized",
      "outputs": [
        {
          "internalType": "bool",
          "name": "",
          "type": "bool"
        }
      ],
      "stateMutability": "view",
      "type": "function",
      "constant": true
    },
    {
      "inputs": [],
      "name": "goal",
      "outputs": [
        {
          "internalType": "uint256",
          "name": "",
          "type": "uint256"
        }
      ],
      "stateMutability": "view",
      "type": "function",
      "constant": true
    },
    {
      "inputs": [],
      "name": "goalReached",
      "outputs": [
        {
          "internalType": "bool",
          "name": "",
          "type": "bool"
        }
      ],
      "stateMutability": "view",
      "type": "function",
      "constant": true
    },
    {
      "inputs": [],
      "name": "hasClosed",
      "outputs": [
        {
          "internalType": "bool",
          "name": "",
          "type": "bool"
        }
      ],
      "stateMutability": "view",
      "type": "function",
      "constant": true
    },
    {
      "inputs": [],
      "name": "investorHardCap",
      "outputs": [
        {
          "internalType": "uint256",
          "name": "",
          "type": "uint256"
        }
      ],
      "stateMutability": "view",
      "type": "function",
      "constant": true
    },
    {
      "inputs": [],
      "name": "investorMinCap",
      "outputs": [
        {
          "internalType": "uint256",
          "name": "",
          "type": "uint256"
        }
      ],
      "stateMutability": "view",
      "type": "function",
      "constant": true
    },
    {
      "inputs": [],
      "name": "isOpen",
      "outputs": [
        {
          "internalType": "bool",
          "name": "",
          "type": "bool"
        }
      ],
      "stateMutability": "view",
      "type": "function",
      "constant": true
    },
    {
      "inputs": [],
      "name": "openingTime",
      "outputs": [
        {
          "internalType": "uint256",
          "name": "",
          "type": "uint256"
        }
      ],
      "stateMutability": "view",
      "type": "function",
      "constant": true
    },
    {
      "inputs": [],
      "name": "rate",
      "outputs": [
        {
          "internalType": "uint256",
          "name": "",
          "type": "uint256"
        }
      ],
      "stateMutability": "view",
      "type": "function",
      "constant": true
    },
    {
      "inputs": [],
      "name": "token",
      "outputs": [
        {
          "internalType": "contract IERC20",
          "name": "",
          "type": "address"
        }
      ],
      "stateMutability": "view",
      "type": "function",
      "constant": true
    },
    {
      "inputs": [],
      "name": "wallet",
      "outputs": [
        {
          "internalType": "address payable",
          "name": "",
          "type": "address"
        }
      ],
      "stateMutability": "view",
      "type": "function",
      "constant": true
    },
    {
      "inputs": [],
      "name": "weiRaised",
      "outputs": [
        {
          "internalType": "uint256",
          "name": "",
          "type": "uint256"
        }
      ],
      "stateMutability": "view",
      "type": "function",
      "constant": true
    },
    {
      "stateMutability": "payable",
      "type": "receive",
      "payable": true
    }
  ],
  "bytecode": "0x60806040526801158e460913d00000600b556802b5e3af16b1880000600c553480156200002b57600080fd5b506040516200401238038062004012833981810160405281019062000051919062000452565b808383868a8a8a600160008190555060008311620000a6576040517f08c379a00000000000000000000000000000000000000000000000000000000081526004016200009d906200069f565b60405180910390fd5b600073ffffffffffffffffffffffffffffffffffffffff168273ffffffffffffffffffffffffffffffffffffffff16141562000119576040517f08c379a00000000000000000000000000000000000000000000000000000000081526004016200011090620006c1565b60405180910390fd5b600073ffffffffffffffffffffffffffffffffffffffff168173ffffffffffffffffffffffffffffffffffffffff1614156200018c576040517f08c379a000000000000000000000000000000000000000000000000000000000815260040162000183906200067d565b60405180910390fd5b8260038190555081600260006101000a81548173ffffffffffffffffffffffffffffffffffffffff021916908373ffffffffffffffffffffffffffffffffffffffff16021790555080600160006101000a81548173ffffffffffffffffffffffffffffffffffffffff021916908373ffffffffffffffffffffffffffffffffffffffff160217905550505050600081116200022657600080fd5b80600581905550504282101562000274576040517f08c379a00000000000000000000000000000000000000000000000000000000081526004016200026b9062000617565b60405180910390fd5b818111620002b9576040517f08c379a0000000000000000000000000000000000000000000000000000000008152600401620002b0906200065b565b60405180910390fd5b816006819055508060078190555050506000600860006101000a81548160ff021916908315150217905550600081116200032a576040517f08c379a0000000000000000000000000000000000000000000000000000000008152600401620003219062000639565b60405180910390fd5b6200033a620003d560201b60201c565b6040516200034890620003ff565b620003549190620005fa565b604051809103906000f08015801562000371573d6000803e3d6000fd5b50600a60006101000a81548173ffffffffffffffffffffffffffffffffffffffff021916908373ffffffffffffffffffffffffffffffffffffffff160217905550806009819055505083811115620003c857600080fd5b5050505050505062000936565b6000600260009054906101000a900473ffffffffffffffffffffffffffffffffffffffff16905090565b611c88806200238a83390190565b6000815190506200041e81620008e8565b92915050565b600081519050620004358162000902565b92915050565b6000815190506200044c816200091c565b92915050565b600080600080600080600060e0888a0312156200046e57600080fd5b60006200047e8a828b016200043b565b9750506020620004918a828b016200040d565b9650506040620004a48a828b0162000424565b9550506060620004b78a828b016200043b565b9450506080620004ca8a828b016200043b565b93505060a0620004dd8a828b016200043b565b92505060c0620004f08a828b016200043b565b91505092959891949750929550565b6200050a8162000708565b82525050565b60006200051f603383620006e3565b91506200052c826200075a565b604082019050919050565b600062000546601e83620006e3565b91506200055382620007a9565b602082019050919050565b60006200056d603783620006e3565b91506200057a82620007d2565b604082019050919050565b600062000594602483620006e3565b9150620005a18262000821565b604082019050919050565b6000620005bb601483620006e3565b9150620005c88262000870565b602082019050919050565b6000620005e2602583620006e3565b9150620005ef8262000899565b604082019050919050565b6000602082019050620006116000830184620004ff565b92915050565b60006020820190508181036000830152620006328162000510565b9050919050565b60006020820190508181036000830152620006548162000537565b9050919050565b6000602082019050818103600083015262000676816200055e565b9050919050565b60006020820190508181036000830152620006988162000585565b9050919050565b60006020820190508181036000830152620006ba81620005ac565b9050919050565b60006020820190508181036000830152620006dc81620005d3565b9050919050565b600082825260208201905092915050565b6000620007018262000730565b9050919050565b6000620007158262000730565b9050919050565b60006200072982620006f4565b9050919050565b600073ffffffffffffffffffffffffffffffffffffffff82169050919050565b6000819050919050565b7f54696d656443726f776473616c653a206f70656e696e672074696d652069732060008201527f6265666f72652063757272656e742074696d6500000000000000000000000000602082015250565b7f526566756e6461626c6543726f776473616c653a20676f616c20697320300000600082015250565b7f54696d656443726f776473616c653a206f70656e696e672074696d652069732060008201527f6e6f74206265666f726520636c6f73696e672074696d65000000000000000000602082015250565b7f43726f776473616c653a20746f6b656e20697320746865207a65726f2061646460008201527f7265737300000000000000000000000000000000000000000000000000000000602082015250565b7f43726f776473616c653a20726174652069732030000000000000000000000000600082015250565b7f43726f776473616c653a2077616c6c657420697320746865207a65726f20616460008201527f6472657373000000000000000000000000000000000000000000000000000000602082015250565b620008f38162000708565b8114620008ff57600080fd5b50565b6200090d816200071c565b81146200091957600080fd5b50565b620009278162000750565b81146200093357600080fd5b50565b611a4480620009466000396000f3fe6080604052600436106101185760003560e01c80634f935945116100a0578063b7a8807c11610064578063b7a8807c1461038c578063bffa55d5146103b7578063ec8ac4d8146103e0578063ed5db874146103fc578063fc0c546a146104275761012f565b80634f935945146102b5578063521eb273146102e05780637d3d65221461030b578063b25d7f5414610336578063b3f05b97146103615761012f565b80634042b66f116100e75780634042b66f146101e057806342e94c901461020b57806347535d7b146102485780634b6753bc146102735780634bb278f31461029e5761012f565b80631515bc2b146101345780632c4e722e1461015f578063355274ea1461018a57806340193883146101b55761012f565b3661012f5761012d610128610452565b61045a565b005b600080fd5b34801561014057600080fd5b50610149610580565b6040516101569190611353565b60405180910390f35b34801561016b57600080fd5b5061017461058c565b604051610181919061150b565b60405180910390f35b34801561019657600080fd5b5061019f610596565b6040516101ac919061150b565b60405180910390f35b3480156101c157600080fd5b506101ca61059c565b6040516101d7919061150b565b60405180910390f35b3480156101ec57600080fd5b506101f56105a6565b604051610202919061150b565b60405180910390f35b34801561021757600080fd5b50610232600480360381019061022d9190611047565b6105b0565b60405161023f919061150b565b60405180910390f35b34801561025457600080fd5b5061025d6105c8565b60405161026a9190611353565b60405180910390f35b34801561027f57600080fd5b506102886105e3565b604051610295919061150b565b60405180910390f35b3480156102aa57600080fd5b506102b36105ed565b005b3480156102c157600080fd5b506102ca6106d5565b6040516102d79190611353565b60405180910390f35b3480156102ec57600080fd5b506102f56106f8565b604051610302919061130f565b60405180910390f35b34801561031757600080fd5b50610320610722565b60405161032d9190611353565b60405180910390f35b34801561034257600080fd5b5061034b610736565b604051610358919061150b565b60405180910390f35b34801561036d57600080fd5b5061037661073c565b6040516103839190611353565b60405180910390f35b34801561039857600080fd5b506103a1610753565b6040516103ae919061150b565b60405180910390f35b3480156103c357600080fd5b506103de60048036038101906103d99190611070565b61075d565b005b6103fa60048036038101906103f59190611047565b61045a565b005b34801561040857600080fd5b5061041161087c565b60405161041e919061150b565b60405180910390f35b34801561043357600080fd5b5061043c610882565b604051610449919061136e565b60405180910390f35b600033905090565b600260005414156104a0576040517f08c379a0000000000000000000000000000000000000000000000000000000008152600401610497906114cb565b60405180910390fd5b600260008190555060003490506104b782826108ac565b60006104c282610971565b90506104d98260045461098f90919063ffffffff16565b6004819055506104e983826109a5565b8273ffffffffffffffffffffffffffffffffffffffff16610508610452565b73ffffffffffffffffffffffffffffffffffffffff167f6faf93231a456e552dbc9961f58d9713ee4f2e69d15f1975b050ef0911053a7b848460405161054f929190611526565b60405180910390a361056183836109b3565b6105696109b7565b61057383836109b9565b5050600160008190555050565b60006007544211905090565b6000600354905090565b60055481565b6000600954905090565b6000600454905090565b600d6020528060005260406000206000915090505481565b600060065442101580156105de57506007544211155b905090565b6000600754905090565b600860009054906101000a900460ff161561063d576040517f08c379a00000000000000000000000000000000000000000000000000000000081526004016106349061140b565b60405180910390fd5b610645610580565b610684576040517f08c379a000000000000000000000000000000000000000000000000000000000815260040161067b906113cb565b60405180910390fd5b6001600860006101000a81548160ff0219169083151502179055506106a76109bd565b7f9270cc390c096600a1c17c44345a1ba689fafd99d97487b10cfccf86cf73183660405160405180910390a1565b60006005546106e26105a6565b106106f057600190506106f5565b600090505b90565b6000600260009054906101000a900473ffffffffffffffffffffffffffffffffffffffff16905090565b600060095461072f6105a6565b1015905090565b600b5481565b6000600860009054906101000a900460ff16905090565b6000600654905090565b61076561073c565b6107a4576040517f08c379a000000000000000000000000000000000000000000000000000000000815260040161079b9061146b565b60405180910390fd5b6107ac610722565b156107ec576040517f08c379a00000000000000000000000000000000000000000000000000000000081526004016107e39061142b565b60405180910390fd5b600a60009054906101000a900473ffffffffffffffffffffffffffffffffffffffff1673ffffffffffffffffffffffffffffffffffffffff166351cff8d9826040518263ffffffff1660e01b8152600401610847919061130f565b600060405180830381600087803b15801561086157600080fd5b505af1158015610875573d6000803e3d6000fd5b5050505050565b600c5481565b6000600160009054906101000a900473ffffffffffffffffffffffffffffffffffffffff16905090565b6108b68282610b60565b6000600d60008473ffffffffffffffffffffffffffffffffffffffff1673ffffffffffffffffffffffffffffffffffffffff168152602001908152602001600020549050600082826109089190611581565b9050600b54811015801561091e5750600c548111155b61092757600080fd5b80600d60008673ffffffffffffffffffffffffffffffffffffffff1673ffffffffffffffffffffffffffffffffffffffff1681526020019081526020016000208190555050505050565b600061098860035483610bb590919063ffffffff16565b9050919050565b6000818361099d9190611581565b905092915050565b6109af8282610bcb565b5050565b5050565b565b5050565b6109c5610722565b15610ad357600a60009054906101000a900473ffffffffffffffffffffffffffffffffffffffff1673ffffffffffffffffffffffffffffffffffffffff166343d726d66040518163ffffffff1660e01b8152600401600060405180830381600087803b158015610a3457600080fd5b505af1158015610a48573d6000803e3d6000fd5b50505050600a60009054906101000a900473ffffffffffffffffffffffffffffffffffffffff1673ffffffffffffffffffffffffffffffffffffffff16639af6549a6040518163ffffffff1660e01b8152600401600060405180830381600087803b158015610ab657600080fd5b505af1158015610aca573d6000803e3d6000fd5b50505050610b56565b600a60009054906101000a900473ffffffffffffffffffffffffffffffffffffffff1673ffffffffffffffffffffffffffffffffffffffff16638c52dc416040518163ffffffff1660e01b8152600401600060405180830381600087803b158015610b3d57600080fd5b505af1158015610b51573d6000803e3d6000fd5b505050505b610b5e610c1c565b565b610b686105c8565b610ba7576040517f08c379a0000000000000000000000000000000000000000000000000000000008152600401610b9e906113ab565b60405180910390fd5b610bb18282610c1e565b5050565b60008183610bc391906115d7565b905092915050565b610c188282600160009054906101000a900473ffffffffffffffffffffffffffffffffffffffff1673ffffffffffffffffffffffffffffffffffffffff16610c4d9092919063ffffffff16565b5050565b565b610c288282610cd3565b60055481610c346105a6565b610c3e9190611581565b1115610c4957600080fd5b5050565b610cce8363a9059cbb60e01b8484604051602401610c6c92919061132a565b604051602081830303815290604052907bffffffffffffffffffffffffffffffffffffffffffffffffffffffff19166020820180517bffffffffffffffffffffffffffffffffffffffffffffffffffffffff8381831617835250505050610d8b565b505050565b600073ffffffffffffffffffffffffffffffffffffffff168273ffffffffffffffffffffffffffffffffffffffff161415610d43576040517f08c379a0000000000000000000000000000000000000000000000000000000008152600401610d3a9061144b565b60405180910390fd5b6000811415610d87576040517f08c379a0000000000000000000000000000000000000000000000000000000008152600401610d7e906114eb565b60405180910390fd5b5050565b6000610ded826040518060400160405280602081526020017f5361666545524332303a206c6f772d6c6576656c2063616c6c206661696c65648152508573ffffffffffffffffffffffffffffffffffffffff16610e529092919063ffffffff16565b9050600081511115610e4d5780806020019051810190610e0d9190611099565b610e4c576040517f08c379a0000000000000000000000000000000000000000000000000000000008152600401610e43906114ab565b60405180910390fd5b5b505050565b6060610e618484600085610e6a565b90509392505050565b606082471015610eaf576040517f08c379a0000000000000000000000000000000000000000000000000000000008152600401610ea6906113eb565b60405180910390fd5b610eb885610f7e565b610ef7576040517f08c379a0000000000000000000000000000000000000000000000000000000008152600401610eee9061148b565b60405180910390fd5b6000808673ffffffffffffffffffffffffffffffffffffffff168587604051610f2091906112f8565b60006040518083038185875af1925050503d8060008114610f5d576040519150601f19603f3d011682016040523d82523d6000602084013e610f62565b606091505b5091509150610f72828286610fa1565b92505050949350505050565b6000808273ffffffffffffffffffffffffffffffffffffffff163b119050919050565b60608315610fb157829050611001565b600083511115610fc45782518084602001fd5b816040517f08c379a0000000000000000000000000000000000000000000000000000000008152600401610ff89190611389565b60405180910390fd5b9392505050565b600081359050611017816119c9565b92915050565b60008135905061102c816119e0565b92915050565b600081519050611041816119f7565b92915050565b60006020828403121561105957600080fd5b600061106784828501611008565b91505092915050565b60006020828403121561108257600080fd5b60006110908482850161101d565b91505092915050565b6000602082840312156110ab57600080fd5b60006110b984828501611032565b91505092915050565b6110cb81611643565b82525050565b6110da81611631565b82525050565b6110e981611655565b82525050565b60006110fa8261154f565b6111048185611565565b93506111148185602086016116af565b80840191505092915050565b6111298161168b565b82525050565b600061113a8261155a565b6111448185611570565b93506111548185602086016116af565b61115d81611711565b840191505092915050565b6000611175601883611570565b915061118082611722565b602082019050919050565b6000611198602083611570565b91506111a38261174b565b602082019050919050565b60006111bb602683611570565b91506111c682611774565b604082019050919050565b60006111de602783611570565b91506111e9826117c3565b604082019050919050565b6000611201602183611570565b915061120c82611812565b604082019050919050565b6000611224602a83611570565b915061122f82611861565b604082019050919050565b6000611247602283611570565b9150611252826118b0565b604082019050919050565b600061126a601d83611570565b9150611275826118ff565b602082019050919050565b600061128d602a83611570565b915061129882611928565b604082019050919050565b60006112b0601f83611570565b91506112bb82611977565b602082019050919050565b60006112d3601983611570565b91506112de826119a0565b602082019050919050565b6112f281611681565b82525050565b600061130482846110ef565b915081905092915050565b600060208201905061132460008301846110c2565b92915050565b600060408201905061133f60008301856110d1565b61134c60208301846112e9565b9392505050565b600060208201905061136860008301846110e0565b92915050565b60006020820190506113836000830184611120565b92915050565b600060208201905081810360008301526113a3818461112f565b905092915050565b600060208201905081810360008301526113c481611168565b9050919050565b600060208201905081810360008301526113e48161118b565b9050919050565b60006020820190508181036000830152611404816111ae565b9050919050565b60006020820190508181036000830152611424816111d1565b9050919050565b60006020820190508181036000830152611444816111f4565b9050919050565b6000602082019050818103600083015261146481611217565b9050919050565b600060208201905081810360008301526114848161123a565b9050919050565b600060208201905081810360008301526114a48161125d565b9050919050565b600060208201905081810360008301526114c481611280565b9050919050565b600060208201905081810360008301526114e4816112a3565b9050919050565b60006020820190508181036000830152611504816112c6565b9050919050565b600060208201905061152060008301846112e9565b92915050565b600060408201905061153b60008301856112e9565b61154860208301846112e9565b9392505050565b600081519050919050565b600081519050919050565b600081905092915050565b600082825260208201905092915050565b600061158c82611681565b915061159783611681565b9250827fffffffffffffffffffffffffffffffffffffffffffffffffffffffffffffffff038211156115cc576115cb6116e2565b5b828201905092915050565b60006115e282611681565b91506115ed83611681565b9250817fffffffffffffffffffffffffffffffffffffffffffffffffffffffffffffffff0483118215151615611626576116256116e2565b5b828202905092915050565b600061163c82611661565b9050919050565b600061164e82611661565b9050919050565b60008115159050919050565b600073ffffffffffffffffffffffffffffffffffffffff82169050919050565b6000819050919050565b60006116968261169d565b9050919050565b60006116a882611661565b9050919050565b60005b838110156116cd5780820151818401526020810190506116b2565b838111156116dc576000848401525b50505050565b7f4e487b7100000000000000000000000000000000000000000000000000000000600052601160045260246000fd5b6000601f19601f8301169050919050565b7f54696d656443726f776473616c653a206e6f74206f70656e0000000000000000600082015250565b7f46696e616c697a61626c6543726f776473616c653a206e6f7420636c6f736564600082015250565b7f416464726573733a20696e73756666696369656e742062616c616e636520666f60008201527f722063616c6c0000000000000000000000000000000000000000000000000000602082015250565b7f46696e616c697a61626c6543726f776473616c653a20616c726561647920666960008201527f6e616c697a656400000000000000000000000000000000000000000000000000602082015250565b7f526566756e6461626c6543726f776473616c653a20676f616c2072656163686560008201527f6400000000000000000000000000000000000000000000000000000000000000602082015250565b7f43726f776473616c653a2062656e656669636961727920697320746865207a6560008201527f726f206164647265737300000000000000000000000000000000000000000000602082015250565b7f526566756e6461626c6543726f776473616c653a206e6f742066696e616c697a60008201527f6564000000000000000000000000000000000000000000000000000000000000602082015250565b7f416464726573733a2063616c6c20746f206e6f6e2d636f6e7472616374000000600082015250565b7f5361666545524332303a204552433230206f7065726174696f6e20646964206e60008201527f6f74207375636365656400000000000000000000000000000000000000000000602082015250565b7f5265656e7472616e637947756172643a207265656e7472616e742063616c6c00600082015250565b7f43726f776473616c653a20776569416d6f756e74206973203000000000000000600082015250565b6119d281611631565b81146119dd57600080fd5b50565b6119e981611643565b81146119f457600080fd5b50565b611a0081611655565b8114611a0b57600080fd5b5056fea264697066735822122072cf1d85e53dd4bd465ca18746cbd1207f876eaa8e90239179c85e4a99f874cf64736f6c6343000804003360806040523480156200001157600080fd5b5060405162001c8838038062001c888339818101604052810190620000379190620001f1565b600062000049620001d260201b60201c565b9050806000806101000a81548173ffffffffffffffffffffffffffffffffffffffff021916908373ffffffffffffffffffffffffffffffffffffffff1602179055507f4101e71e974f68df5e9730cc223280b41654676bbb052cdcc735c3337e64d2d981604051620000bc919062000255565b60405180910390a150600073ffffffffffffffffffffffffffffffffffffffff168173ffffffffffffffffffffffffffffffffffffffff16141562000138576040517f08c379a00000000000000000000000000000000000000000000000000000000081526004016200012f9062000272565b60405180910390fd5b80600260016101000a81548173ffffffffffffffffffffffffffffffffffffffff021916908373ffffffffffffffffffffffffffffffffffffffff1602179055506000600260006101000a81548160ff02191690836002811115620001c6577f4e487b7100000000000000000000000000000000000000000000000000000000600052602160045260246000fd5b02179055505062000356565b600033905090565b600081519050620001eb816200033c565b92915050565b6000602082840312156200020457600080fd5b60006200021484828501620001da565b91505092915050565b6200022881620002a5565b82525050565b60006200023d602d8362000294565b91506200024a82620002ed565b604082019050919050565b60006020820190506200026c60008301846200021d565b92915050565b600060208201905081810360008301526200028d816200022e565b9050919050565b600082825260208201905092915050565b6000620002b282620002cd565b9050919050565b6000620002c682620002cd565b9050919050565b600073ffffffffffffffffffffffffffffffffffffffff82169050919050565b7f526566756e64457363726f773a2062656e65666963696172792069732074686560008201527f207a65726f206164647265737300000000000000000000000000000000000000602082015250565b6200034781620002b9565b81146200035357600080fd5b50565b61192280620003666000396000f3fe6080604052600436106100a75760003560e01c80638c52dc41116100645780638c52dc41146101a65780639af6549a146101bd578063c19d93fb146101d4578063c6dbdf61146101ff578063e3a9db1a1461022a578063f340fa0114610267576100a7565b80632348238c146100ac57806338af3eed146100d557806343d726d61461010057806351cff8d9146101175780636809691a14610140578063685ca19414610169575b600080fd5b3480156100b857600080fd5b506100d360048036038101906100ce919061112a565b610283565b005b3480156100e157600080fd5b506100ea610402565b6040516100f7919061132b565b60405180910390f35b34801561010c57600080fd5b5061011561042c565b005b34801561012357600080fd5b5061013e60048036038101906101399190611153565b610601565b005b34801561014c57600080fd5b5061016760048036038101906101629190611153565b610655565b005b34801561017557600080fd5b50610190600480360381019061018b919061112a565b6107ee565b60405161019d9190611346565b60405180910390f35b3480156101b257600080fd5b506101bb61087a565b005b3480156101c957600080fd5b506101d2610a50565b005b3480156101e057600080fd5b506101e9610b7c565b6040516101f69190611361565b60405180910390f35b34801561020b57600080fd5b50610214610b93565b604051610221919061132b565b60405180910390f35b34801561023657600080fd5b50610251600480360381019061024c919061112a565b610bbc565b60405161025e919061149c565b60405180910390f35b610281600480360381019061027c919061112a565b610c05565b005b60008054906101000a900473ffffffffffffffffffffffffffffffffffffffff1673ffffffffffffffffffffffffffffffffffffffff166102c2610cd3565b73ffffffffffffffffffffffffffffffffffffffff1614610318576040517f08c379a000000000000000000000000000000000000000000000000000000000815260040161030f9061145c565b60405180910390fd5b600073ffffffffffffffffffffffffffffffffffffffff168173ffffffffffffffffffffffffffffffffffffffff161415610388576040517f08c379a000000000000000000000000000000000000000000000000000000000815260040161037f9061143c565b60405180910390fd5b806000806101000a81548173ffffffffffffffffffffffffffffffffffffffff021916908373ffffffffffffffffffffffffffffffffffffffff1602179055507f4101e71e974f68df5e9730cc223280b41654676bbb052cdcc735c3337e64d2d9816040516103f7919061132b565b60405180910390a150565b6000600260019054906101000a900473ffffffffffffffffffffffffffffffffffffffff16905090565b60008054906101000a900473ffffffffffffffffffffffffffffffffffffffff1673ffffffffffffffffffffffffffffffffffffffff1661046b610cd3565b73ffffffffffffffffffffffffffffffffffffffff16146104c1576040517f08c379a00000000000000000000000000000000000000000000000000000000081526004016104b89061145c565b60405180910390fd5b600060028111156104fb577f4e487b7100000000000000000000000000000000000000000000000000000000600052602160045260246000fd5b600260009054906101000a900460ff166002811115610543577f4e487b7100000000000000000000000000000000000000000000000000000000600052602160045260246000fd5b14610583576040517f08c379a000000000000000000000000000000000000000000000000000000000815260040161057a9061141c565b60405180910390fd5b60028060006101000a81548160ff021916908360028111156105ce577f4e487b7100000000000000000000000000000000000000000000000000000000600052602160045260246000fd5b02179055507f088672c3a6e342f7cd94a65ba63b79df24a8973927b4d05d803c44bbf787d12f60405160405180910390a1565b61060a816107ee565b610649576040517f08c379a0000000000000000000000000000000000000000000000000000000008152600401610640906113fc565b60405180910390fd5b61065281610cdb565b50565b60008054906101000a900473ffffffffffffffffffffffffffffffffffffffff1673ffffffffffffffffffffffffffffffffffffffff16610694610cd3565b73ffffffffffffffffffffffffffffffffffffffff16146106ea576040517f08c379a00000000000000000000000000000000000000000000000000000000081526004016106e19061145c565b60405180910390fd5b6000600160008373ffffffffffffffffffffffffffffffffffffffff1673ffffffffffffffffffffffffffffffffffffffff1681526020019081526020016000205490506000600160008473ffffffffffffffffffffffffffffffffffffffff1673ffffffffffffffffffffffffffffffffffffffff1681526020019081526020016000208190555061079c818373ffffffffffffffffffffffffffffffffffffffff16610e9290919063ffffffff16565b8173ffffffffffffffffffffffffffffffffffffffff167f7084f5476618d8e60b11ef0d7d3f06914655adb8793e28ff7f018d4c76d505d5826040516107e2919061149c565b60405180910390a25050565b60006001600281111561082a577f4e487b7100000000000000000000000000000000000000000000000000000000600052602160045260246000fd5b600260009054906101000a900460ff166002811115610872577f4e487b7100000000000000000000000000000000000000000000000000000000600052602160045260246000fd5b149050919050565b60008054906101000a900473ffffffffffffffffffffffffffffffffffffffff1673ffffffffffffffffffffffffffffffffffffffff166108b9610cd3565b73ffffffffffffffffffffffffffffffffffffffff161461090f576040517f08c379a00000000000000000000000000000000000000000000000000000000081526004016109069061145c565b60405180910390fd5b60006002811115610949577f4e487b7100000000000000000000000000000000000000000000000000000000600052602160045260246000fd5b600260009054906101000a900460ff166002811115610991577f4e487b7100000000000000000000000000000000000000000000000000000000600052602160045260246000fd5b146109d1576040517f08c379a00000000000000000000000000000000000000000000000000000000081526004016109c89061147c565b60405180910390fd5b6001600260006101000a81548160ff02191690836002811115610a1d577f4e487b7100000000000000000000000000000000000000000000000000000000600052602160045260246000fd5b02179055507f599d8e5a83cffb867d051598c4d70e805d59802d8081c1c7d6dffc5b6aca2b8960405160405180910390a1565b600280811115610a89577f4e487b7100000000000000000000000000000000000000000000000000000000600052602160045260246000fd5b600260009054906101000a900460ff166002811115610ad1577f4e487b7100000000000000000000000000000000000000000000000000000000600052602160045260246000fd5b14610b11576040517f08c379a0000000000000000000000000000000000000000000000000000000008152600401610b089061137c565b60405180910390fd5b600260019054906101000a900473ffffffffffffffffffffffffffffffffffffffff1673ffffffffffffffffffffffffffffffffffffffff166108fc479081150290604051600060405180830381858888f19350505050158015610b79573d6000803e3d6000fd5b50565b6000600260009054906101000a900460ff16905090565b60008060009054906101000a900473ffffffffffffffffffffffffffffffffffffffff16905090565b6000600160008373ffffffffffffffffffffffffffffffffffffffff1673ffffffffffffffffffffffffffffffffffffffff168152602001908152602001600020549050919050565b60006002811115610c3f577f4e487b7100000000000000000000000000000000000000000000000000000000600052602160045260246000fd5b600260009054906101000a900460ff166002811115610c87577f4e487b7100000000000000000000000000000000000000000000000000000000600052602160045260246000fd5b14610cc7576040517f08c379a0000000000000000000000000000000000000000000000000000000008152600401610cbe906113dc565b60405180910390fd5b610cd081610f86565b50565b600033905090565b60008054906101000a900473ffffffffffffffffffffffffffffffffffffffff1673ffffffffffffffffffffffffffffffffffffffff16610d1a610cd3565b73ffffffffffffffffffffffffffffffffffffffff1614610d70576040517f08c379a0000000000000000000000000000000000000000000000000000000008152600401610d679061145c565b60405180910390fd5b6000600160008373ffffffffffffffffffffffffffffffffffffffff1673ffffffffffffffffffffffffffffffffffffffff1681526020019081526020016000205490506000600160008473ffffffffffffffffffffffffffffffffffffffff1673ffffffffffffffffffffffffffffffffffffffff168152602001908152602001600020819055508173ffffffffffffffffffffffffffffffffffffffff166108fc829081150290604051600060405180830381858888f19350505050158015610e3f573d6000803e3d6000fd5b508173ffffffffffffffffffffffffffffffffffffffff167f7084f5476618d8e60b11ef0d7d3f06914655adb8793e28ff7f018d4c76d505d582604051610e86919061149c565b60405180910390a25050565b80471015610ed5576040517f08c379a0000000000000000000000000000000000000000000000000000000008152600401610ecc906113bc565b60405180910390fd5b60008273ffffffffffffffffffffffffffffffffffffffff1682604051610efb90611316565b60006040518083038185875af1925050503d8060008114610f38576040519150601f19603f3d011682016040523d82523d6000602084013e610f3d565b606091505b5050905080610f81576040517f08c379a0000000000000000000000000000000000000000000000000000000008152600401610f789061139c565b60405180910390fd5b505050565b60008054906101000a900473ffffffffffffffffffffffffffffffffffffffff1673ffffffffffffffffffffffffffffffffffffffff16610fc5610cd3565b73ffffffffffffffffffffffffffffffffffffffff161461101b576040517f08c379a00000000000000000000000000000000000000000000000000000000081526004016110129061145c565b60405180910390fd5b600034905080600160008473ffffffffffffffffffffffffffffffffffffffff1673ffffffffffffffffffffffffffffffffffffffff1681526020019081526020016000205461106b91906114d3565b600160008473ffffffffffffffffffffffffffffffffffffffff1673ffffffffffffffffffffffffffffffffffffffff168152602001908152602001600020819055508173ffffffffffffffffffffffffffffffffffffffff167f2da466a7b24304f47e87fa2e1e5a81b9831ce54fec19055ce277ca2f39ba42c4826040516110f4919061149c565b60405180910390a25050565b60008135905061110f816118be565b92915050565b600081359050611124816118d5565b92915050565b60006020828403121561113c57600080fd5b600061114a84828501611100565b91505092915050565b60006020828403121561116557600080fd5b600061117384828501611115565b91505092915050565b61118581611529565b82525050565b6111948161154d565b82525050565b6111a381611596565b82525050565b60006111b66038836114c2565b91506111c182611606565b604082019050919050565b60006111d9603a836114c2565b91506111e482611655565b604082019050919050565b60006111fc601d836114c2565b9150611207826116a4565b602082019050919050565b600061121f602b836114c2565b915061122a826116cd565b604082019050919050565b60006112426033836114c2565b915061124d8261171c565b604082019050919050565b60006112656029836114c2565b91506112708261176b565b604082019050919050565b6000611288602a836114c2565b9150611293826117ba565b604082019050919050565b60006112ab602c836114c2565b91506112b682611809565b604082019050919050565b60006112ce6000836114b7565b91506112d982611858565b600082019050919050565b60006112f16032836114c2565b91506112fc8261185b565b604082019050919050565b6113108161158c565b82525050565b6000611321826112c1565b9150819050919050565b6000602082019050611340600083018461117c565b92915050565b600060208201905061135b600083018461118b565b92915050565b6000602082019050611376600083018461119a565b92915050565b60006020820190508181036000830152611395816111a9565b9050919050565b600060208201905081810360008301526113b5816111cc565b9050919050565b600060208201905081810360008301526113d5816111ef565b9050919050565b600060208201905081810360008301526113f581611212565b9050919050565b6000602082019050818103600083015261141581611235565b9050919050565b6000602082019050818103600083015261143581611258565b9050919050565b600060208201905081810360008301526114558161127b565b9050919050565b600060208201905081810360008301526114758161129e565b9050919050565b60006020820190508181036000830152611495816112e4565b9050919050565b60006020820190506114b16000830184611307565b92915050565b600081905092915050565b600082825260208201905092915050565b60006114de8261158c565b91506114e98361158c565b9250827fffffffffffffffffffffffffffffffffffffffffffffffffffffffffffffffff0382111561151e5761151d6115a8565b5b828201905092915050565b60006115348261156c565b9050919050565b60006115468261156c565b9050919050565b60008115159050919050565b6000819050611567826118aa565b919050565b600073ffffffffffffffffffffffffffffffffffffffff82169050919050565b6000819050919050565b60006115a182611559565b9050919050565b7f4e487b7100000000000000000000000000000000000000000000000000000000600052601160045260246000fd5b7f4e487b7100000000000000000000000000000000000000000000000000000000600052602160045260246000fd5b7f526566756e64457363726f773a2062656e65666963696172792063616e206f6e60008201527f6c79207769746864726177207768696c6520636c6f7365640000000000000000602082015250565b7f416464726573733a20756e61626c6520746f2073656e642076616c75652c207260008201527f6563697069656e74206d61792068617665207265766572746564000000000000602082015250565b7f416464726573733a20696e73756666696369656e742062616c616e6365000000600082015250565b7f526566756e64457363726f773a2063616e206f6e6c79206465706f736974207760008201527f68696c6520616374697665000000000000000000000000000000000000000000602082015250565b7f436f6e646974696f6e616c457363726f773a207061796565206973206e6f742060008201527f616c6c6f77656420746f20776974686472617700000000000000000000000000602082015250565b7f526566756e64457363726f773a2063616e206f6e6c7920636c6f73652077686960008201527f6c65206163746976650000000000000000000000000000000000000000000000602082015250565b7f5365636f6e646172793a206e6577207072696d61727920697320746865207a6560008201527f726f206164647265737300000000000000000000000000000000000000000000602082015250565b7f5365636f6e646172793a2063616c6c6572206973206e6f74207468652070726960008201527f6d617279206163636f756e740000000000000000000000000000000000000000602082015250565b50565b7f526566756e64457363726f773a2063616e206f6e6c7920656e61626c6520726560008201527f66756e6473207768696c65206163746976650000000000000000000000000000602082015250565b600381106118bb576118ba6115d7565b5b50565b6118c781611529565b81146118d257600080fd5b50565b6118de8161153b565b81146118e957600080fd5b5056fea26469706673582212207ef2550442fc7e412fbcdc2b630aa0056e9ca82f9c926420ebe9d0a4adfa275e64736f6c63430008040033",
  "immutableReferences": {},
  "source": "//SPDX-License-Identifier:UNLICENSED\r\npragma solidity ^0.8.4;\r\n\r\nimport \"./Crowdsale.sol\";\r\nimport \"./CappedCrowdsale.sol\";\r\nimport \"./MintedCrowdsale.sol\";\r\n\r\nimport \"./TimedCrowdsale.sol\";\r\nimport \"./distribution/RefundableCrowdsale.sol\";\r\n\r\n// import \"openzeppelin-solidity/contracts/crowdsale/distribution/RefundableCrowdsale.sol\";\r\n\r\ncontract ExampleTokenCrowdsale is\r\n    Crowdsale,\r\n    CappedCrowdsale,\r\n    TimedCrowdsale,\r\n    RefundableCrowdsale\r\n{\r\n    uint256 public investorMinCap = 20000000000000000000;\r\n    uint256 public investorHardCap = 50000000000000000000;\r\n\r\n    mapping(address => uint256) public contributions;\r\n\r\n    constructor(\r\n        uint256 _rate,\r\n        address payable _wallet,\r\n        ERC20 _token,\r\n        uint256 _cap,\r\n        uint256 _openingTime,\r\n        uint256 _closingTime,\r\n        uint256 _goal\r\n    )\r\n        public\r\n        Crowdsale(_rate, _wallet, _token)\r\n        CappedCrowdsale(_cap)\r\n        TimedCrowdsale(_openingTime, _closingTime)\r\n        RefundableCrowdsale(_goal)\r\n    {\r\n        require(_goal <= _cap);\r\n    }\r\n\r\n    function _preValidatePurchase(address _beneficiary, uint256 _weiAmount)\r\n        internal\r\n        override(Crowdsale, CappedCrowdsale, TimedCrowdsale)\r\n    {\r\n        super._preValidatePurchase(_beneficiary, _weiAmount);\r\n        uint256 _existingContribution = contributions[_beneficiary];\r\n        uint256 _newContribution = _existingContribution + (_weiAmount);\r\n        require(\r\n            _newContribution >= investorMinCap &&\r\n                _newContribution <= investorHardCap\r\n        );\r\n        contributions[_beneficiary] = _newContribution;\r\n    }\r\n\r\n    function _forwardFunds()\r\n        internal\r\n        virtual\r\n        override(Crowdsale, RefundableCrowdsale)\r\n    {}\r\n}\r\n",
  "sourcePath": "C:\\Users\\MY\\Desktop\\Rapid_Projects\\ICO\\contracts\\ExampleTokenCrowdsale.sol",
  "compiler": {
    "name": "solc",
    "version": "0.8.4+commit.c7e474f2.Emscripten.clang"
  },
  "schemaVersion": "3.4.7",
  "updatedAt": "2022-05-04T12:51:08.457Z",
  "networkType": "ethereum",
  "devdoc": {
    "kind": "dev",
    "methods": {
      "buyTokens(address)": {
        "details": "low level token purchase ***DO NOT OVERRIDE*** This function has a non-reentrancy guard, so it shouldn't be called by another `nonReentrant` function.",
        "params": {
          "beneficiary": "Recipient of the token purchase"
        }
      },
      "capReached()": {
        "details": "Checks whether the cap has been reached.",
        "returns": {
          "_0": "Whether the cap was reached"
        }
      },
      "claimRefund(address)": {
        "details": "Investors can claim refunds here if crowdsale is unsuccessful.",
        "params": {
          "refundee": "Whose refund will be claimed."
        }
      },
      "closingTime()": {
        "returns": {
          "_0": "the crowdsale closing time."
        }
      },
      "finalize()": {
        "details": "Must be called after crowdsale ends, to do some extra finalization work. Calls the contract's finalization function."
      },
      "finalized()": {
        "returns": {
          "_0": "true if the crowdsale is finalized, false otherwise."
        }
      },
      "goal()": {
        "returns": {
          "_0": "minimum amount of funds to be raised in wei."
        }
      },
      "goalReached()": {
        "details": "Checks whether funding goal was reached.",
        "returns": {
          "_0": "Whether funding goal was reached"
        }
      },
      "hasClosed()": {
        "details": "Checks whether the period in which the crowdsale is open has already elapsed.",
        "returns": {
          "_0": "Whether crowdsale period has elapsed"
        }
      },
      "isOpen()": {
        "returns": {
          "_0": "true if the crowdsale is open, false otherwise."
        }
      },
      "openingTime()": {
        "returns": {
          "_0": "the crowdsale opening time."
        }
      },
      "rate()": {
        "returns": {
          "_0": "the number of token units a buyer gets per wei."
        }
      },
      "token()": {
        "returns": {
          "_0": "the token being sold."
        }
      },
      "wallet()": {
        "returns": {
          "_0": "the address where funds are collected."
        }
      },
      "weiRaised()": {
        "returns": {
          "_0": "the amount of wei raised."
        }
      }
    },
    "version": 1
  },
  "userdoc": {
    "events": {
      "TimedCrowdsaleExtended(uint256,uint256)": {
        "notice": "Event for crowdsale extending"
      },
      "TokensPurchased(address,address,uint256,uint256)": {
        "notice": "Event for token purchase logging"
      }
    },
    "kind": "user",
    "methods": {},
    "version": 1
  }
}