{
  "contractName": "ExampleTokenCrowdsale",
  "abi": [
    {
      "inputs": [
        {
          "internalType": "uint256",
          "name": "_startTime",
          "type": "uint256"
        },
        {
          "internalType": "uint256",
          "name": "_endTime",
          "type": "uint256"
        },
        {
          "internalType": "uint256",
          "name": "_rate",
          "type": "uint256"
        },
        {
          "internalType": "uint256",
          "name": "_cap",
          "type": "uint256"
        },
        {
          "internalType": "address payable",
          "name": "_wallet",
          "type": "address"
        },
        {
          "internalType": "string",
          "name": "_name",
          "type": "string"
        },
        {
          "internalType": "string",
          "name": "_symbol",
          "type": "string"
        },
        {
          "internalType": "uint256",
          "name": "_goal",
          "type": "uint256"
        }
      ],
      "stateMutability": "nonpayable",
      "type": "constructor"
    },
    {
      "anonymous": false,
      "inputs": [],
      "name": "Finalized",
      "type": "event"
    },
    {
      "anonymous": false,
      "inputs": [
        {
          "indexed": true,
          "internalType": "address",
          "name": "previousOwner",
          "type": "address"
        },
        {
          "indexed": true,
          "internalType": "address",
          "name": "newOwner",
          "type": "address"
        }
      ],
      "name": "OwnershipTransferred",
      "type": "event"
    },
    {
      "anonymous": false,
      "inputs": [
        {
          "indexed": true,
          "internalType": "address",
          "name": "purchaser",
          "type": "address"
        },
        {
          "indexed": true,
          "internalType": "address",
          "name": "beneficiary",
          "type": "address"
        },
        {
          "indexed": false,
          "internalType": "uint256",
          "name": "value",
          "type": "uint256"
        },
        {
          "indexed": false,
          "internalType": "uint256",
          "name": "amount",
          "type": "uint256"
        }
      ],
      "name": "TokenPurchase",
      "type": "event"
    },
    {
      "inputs": [
        {
          "internalType": "address",
          "name": "beneficiary",
          "type": "address"
        }
      ],
      "name": "buyTokens",
      "outputs": [],
      "stateMutability": "payable",
      "type": "function",
      "payable": true
    },
    {
      "inputs": [],
      "name": "cap",
      "outputs": [
        {
          "internalType": "uint256",
          "name": "",
          "type": "uint256"
        }
      ],
      "stateMutability": "view",
      "type": "function",
      "constant": true
    },
    {
      "inputs": [],
      "name": "claimRefund",
      "outputs": [],
      "stateMutability": "nonpayable",
      "type": "function"
    },
    {
      "inputs": [],
      "name": "endTime",
      "outputs": [
        {
          "internalType": "uint256",
          "name": "",
          "type": "uint256"
        }
      ],
      "stateMutability": "view",
      "type": "function",
      "constant": true
    },
    {
      "inputs": [],
      "name": "finalize",
      "outputs": [],
      "stateMutability": "nonpayable",
      "type": "function"
    },
    {
      "inputs": [],
      "name": "goal",
      "outputs": [
        {
          "internalType": "uint256",
          "name": "",
          "type": "uint256"
        }
      ],
      "stateMutability": "view",
      "type": "function",
      "constant": true
    },
    {
      "inputs": [],
      "name": "goalReached",
      "outputs": [
        {
          "internalType": "bool",
          "name": "",
          "type": "bool"
        }
      ],
      "stateMutability": "view",
      "type": "function",
      "constant": true
    },
    {
      "inputs": [],
      "name": "isFinalized",
      "outputs": [
        {
          "internalType": "bool",
          "name": "",
          "type": "bool"
        }
      ],
      "stateMutability": "view",
      "type": "function",
      "constant": true
    },
    {
      "inputs": [],
      "name": "isOpen",
      "outputs": [
        {
          "internalType": "bool",
          "name": "",
          "type": "bool"
        }
      ],
      "stateMutability": "view",
      "type": "function",
      "constant": true
    },
    {
      "inputs": [],
      "name": "owner",
      "outputs": [
        {
          "internalType": "address",
          "name": "",
          "type": "address"
        }
      ],
      "stateMutability": "view",
      "type": "function",
      "constant": true
    },
    {
      "inputs": [],
      "name": "rate",
      "outputs": [
        {
          "internalType": "uint256",
          "name": "",
          "type": "uint256"
        }
      ],
      "stateMutability": "view",
      "type": "function",
      "constant": true
    },
    {
      "inputs": [],
      "name": "startTime",
      "outputs": [
        {
          "internalType": "uint256",
          "name": "",
          "type": "uint256"
        }
      ],
      "stateMutability": "view",
      "type": "function",
      "constant": true
    },
    {
      "inputs": [],
      "name": "token",
      "outputs": [
        {
          "internalType": "contract ERC20PresetMinterPauser",
          "name": "",
          "type": "address"
        }
      ],
      "stateMutability": "view",
      "type": "function",
      "constant": true
    },
    {
      "inputs": [
        {
          "internalType": "address",
          "name": "newOwner",
          "type": "address"
        }
      ],
      "name": "transferOwnership",
      "outputs": [],
      "stateMutability": "nonpayable",
      "type": "function"
    },
    {
      "inputs": [],
      "name": "vault",
      "outputs": [
        {
          "internalType": "contract RefundVault",
          "name": "",
          "type": "address"
        }
      ],
      "stateMutability": "view",
      "type": "function",
      "constant": true
    },
    {
      "inputs": [],
      "name": "wallet",
      "outputs": [
        {
          "internalType": "address payable",
          "name": "",
          "type": "address"
        }
      ],
      "stateMutability": "view",
      "type": "function",
      "constant": true
    },
    {
      "inputs": [],
      "name": "weiRaised",
      "outputs": [
        {
          "internalType": "uint256",
          "name": "",
          "type": "uint256"
        }
      ],
      "stateMutability": "view",
      "type": "function",
      "constant": true
    },
    {
      "stateMutability": "payable",
      "type": "receive",
      "payable": true
    },
    {
      "inputs": [],
      "name": "hasEnded",
      "outputs": [
        {
          "internalType": "bool",
          "name": "",
          "type": "bool"
        }
      ],
      "stateMutability": "view",
      "type": "function",
      "constant": true
    }
  ],
  "bytecode": "0x60806040526000600760146101000a81548160ff0219169083151502179055503480156200002c57600080fd5b5060405162005d3d38038062005d3d833981810160405281019062000052919062000391565b8085898989888888428610156200006857600080fd5b858510156200007657600080fd5b600084116200008457600080fd5b600073ffffffffffffffffffffffffffffffffffffffff168373ffffffffffffffffffffffffffffffffffffffff161415620000bf57600080fd5b620000d182826200029060201b60201c565b6000806101000a81548173ffffffffffffffffffffffffffffffffffffffff021916908373ffffffffffffffffffffffffffffffffffffffff16021790555085600181905550846002819055508360048190555082600360006101000a81548173ffffffffffffffffffffffffffffffffffffffff021916908373ffffffffffffffffffffffffffffffffffffffff160217905550505050505050600081116200017a57600080fd5b806006819055505033600760006101000a81548173ffffffffffffffffffffffffffffffffffffffff021916908373ffffffffffffffffffffffffffffffffffffffff16021790555060008111620001d157600080fd5b600360009054906101000a900473ffffffffffffffffffffffffffffffffffffffff166040516200020290620002d5565b6200020e9190620004d8565b604051809103906000f0801580156200022b573d6000803e3d6000fd5b50600960006101000a81548173ffffffffffffffffffffffffffffffffffffffff021916908373ffffffffffffffffffffffffffffffffffffffff1602179055508060088190555050848111156200028257600080fd5b5050505050505050620006c9565b60008282604051620002a290620002e3565b620002af929190620004f5565b604051809103906000f080158015620002cc573d6000803e3d6000fd5b50905092915050565b610e97806200161283390190565b61389480620024a983390190565b600062000308620003028462000559565b62000530565b9050828152602081018484840111156200032157600080fd5b6200032e848285620005e9565b509392505050565b600081519050620003478162000695565b92915050565b600082601f8301126200035f57600080fd5b815162000371848260208601620002f1565b91505092915050565b6000815190506200038b81620006af565b92915050565b600080600080600080600080610100898b031215620003af57600080fd5b6000620003bf8b828c016200037a565b9850506020620003d28b828c016200037a565b9750506040620003e58b828c016200037a565b9650506060620003f88b828c016200037a565b95505060806200040b8b828c0162000336565b94505060a089015167ffffffffffffffff8111156200042957600080fd5b620004378b828c016200034d565b93505060c089015167ffffffffffffffff8111156200045557600080fd5b620004638b828c016200034d565b92505060e0620004768b828c016200037a565b9150509295985092959890939650565b6200049181620005ab565b82525050565b6000620004a4826200058f565b620004b081856200059a565b9350620004c2818560208601620005e9565b620004cd8162000684565b840191505092915050565b6000602082019050620004ef600083018462000486565b92915050565b6000604082019050818103600083015262000511818562000497565b9050818103602083015262000527818462000497565b90509392505050565b60006200053c6200054f565b90506200054a82826200061f565b919050565b6000604051905090565b600067ffffffffffffffff82111562000577576200057662000655565b5b620005828262000684565b9050602081019050919050565b600081519050919050565b600082825260208201905092915050565b6000620005b882620005bf565b9050919050565b600073ffffffffffffffffffffffffffffffffffffffff82169050919050565b6000819050919050565b60005b8381101562000609578082015181840152602081019050620005ec565b8381111562000619576000848401525b50505050565b6200062a8262000684565b810181811067ffffffffffffffff821117156200064c576200064b62000655565b5b80604052505050565b7f4e487b7100000000000000000000000000000000000000000000000000000000600052604160045260246000fd5b6000601f19601f8301169050919050565b620006a081620005ab565b8114620006ac57600080fd5b50565b620006ba81620005df565b8114620006c657600080fd5b50565b610f3980620006d96000396000f3fe60806040526004361061010d5760003560e01c80637d3d652211610095578063ec8ac4d811610064578063ec8ac4d814610329578063ecb70fb714610345578063f2fde38b14610370578063fbfa77cf14610399578063fc0c546a146103c45761011d565b80637d3d6522146102915780638d4e4083146102bc5780638da5cb5b146102e7578063b5545a3c146103125761011d565b80634042b66f116100dc5780634042b66f146101ce57806347535d7b146101f95780634bb278f314610224578063521eb2731461023b57806378e97925146102665761011d565b80632c4e722e146101225780633197cbb61461014d578063355274ea1461017857806340193883146101a35761011d565b3661011d5761011b336103ef565b005b600080fd5b34801561012e57600080fd5b50610137610561565b6040516101449190610d27565b60405180910390f35b34801561015957600080fd5b50610162610567565b60405161016f9190610d27565b60405180910390f35b34801561018457600080fd5b5061018d61056d565b60405161019a9190610d27565b60405180910390f35b3480156101af57600080fd5b506101b8610573565b6040516101c59190610d27565b60405180910390f35b3480156101da57600080fd5b506101e3610579565b6040516101f09190610d27565b60405180910390f35b34801561020557600080fd5b5061020e61057f565b60405161021b9190610cd6565b60405180910390f35b34801561023057600080fd5b5061023961059f565b005b34801561024757600080fd5b50610250610675565b60405161025d9190610c92565b60405180910390f35b34801561027257600080fd5b5061027b61069b565b6040516102889190610d27565b60405180910390f35b34801561029d57600080fd5b506102a66106a1565b6040516102b39190610cd6565b60405180910390f35b3480156102c857600080fd5b506102d16106b0565b6040516102de9190610cd6565b60405180910390f35b3480156102f357600080fd5b506102fc6106c3565b6040516103099190610c77565b60405180910390f35b34801561031e57600080fd5b506103276106e9565b005b610343600480360381019061033e9190610bf4565b6103ef565b005b34801561035157600080fd5b5061035a6107a3565b6040516103679190610cd6565b60405180910390f35b34801561037c57600080fd5b5061039760048036038101906103929190610bf4565b6107b2565b005b3480156103a557600080fd5b506103ae610906565b6040516103bb9190610d0c565b60405180910390f35b3480156103d057600080fd5b506103d961092c565b6040516103e69190610cf1565b60405180910390f35b600073ffffffffffffffffffffffffffffffffffffffff168173ffffffffffffffffffffffffffffffffffffffff16141561042957600080fd5b610431610950565b61043a57600080fd5b6000349050600061044a8261095f565b90508160055461045a9190610d6b565b60058190555060008054906101000a900473ffffffffffffffffffffffffffffffffffffffff1673ffffffffffffffffffffffffffffffffffffffff166340c10f1984836040518363ffffffff1660e01b81526004016104bb929190610cad565b600060405180830381600087803b1580156104d557600080fd5b505af11580156104e9573d6000803e3d6000fd5b505050508273ffffffffffffffffffffffffffffffffffffffff163373ffffffffffffffffffffffffffffffffffffffff167f623b3804fa71d67900d064613da8f94b9617215ee90799290593e1745087ad18848460405161054c929190610d42565b60405180910390a361055c610971565b505050565b60045481565b60025481565b60065481565b60085481565b60055481565b600080600154421015801561059657506002544211155b90508091505090565b600760009054906101000a900473ffffffffffffffffffffffffffffffffffffffff1673ffffffffffffffffffffffffffffffffffffffff163373ffffffffffffffffffffffffffffffffffffffff16146105f957600080fd5b600760149054906101000a900460ff161561061357600080fd5b61061b6107a3565b61062457600080fd5b61062c61097b565b7f6823b073d48d6e3a7d385eeb601452d680e74bb46afe3255a7d778f3a9b1768160405160405180910390a16001600760146101000a81548160ff021916908315150217905550565b600360009054906101000a900473ffffffffffffffffffffffffffffffffffffffff1681565b60015481565b60006008546005541015905090565b600760149054906101000a900460ff1681565b600760009054906101000a900473ffffffffffffffffffffffffffffffffffffffff1681565b600760149054906101000a900460ff1661070257600080fd5b61070a6106a1565b1561071457600080fd5b600960009054906101000a900473ffffffffffffffffffffffffffffffffffffffff1673ffffffffffffffffffffffffffffffffffffffff1663fa89401a336040518263ffffffff1660e01b815260040161076f9190610c92565b600060405180830381600087803b15801561078957600080fd5b505af115801561079d573d6000803e3d6000fd5b50505050565b60006107ad610985565b905090565b600760009054906101000a900473ffffffffffffffffffffffffffffffffffffffff1673ffffffffffffffffffffffffffffffffffffffff163373ffffffffffffffffffffffffffffffffffffffff161461080c57600080fd5b600073ffffffffffffffffffffffffffffffffffffffff168173ffffffffffffffffffffffffffffffffffffffff16141561084657600080fd5b8073ffffffffffffffffffffffffffffffffffffffff16600760009054906101000a900473ffffffffffffffffffffffffffffffffffffffff1673ffffffffffffffffffffffffffffffffffffffff167f8be0079c531659141344cd1fd0a4f28419497f9722a3daafe3b4186f6b6457e060405160405180910390a380600760006101000a81548173ffffffffffffffffffffffffffffffffffffffff021916908373ffffffffffffffffffffffffffffffffffffffff16021790555050565b600960009054906101000a900473ffffffffffffffffffffffffffffffffffffffff1681565b60008054906101000a900473ffffffffffffffffffffffffffffffffffffffff1681565b600061095a6109a8565b905090565b600061096a826109d7565b9050919050565b6109796109ee565b565b610983610a7e565b565b6000806006546005541015905080806109a257506109a1610b9f565b5b91505090565b600080600654346005546109bc9190610d6b565b111590508080156109d157506109d0610bab565b5b91505090565b6000600454826109e79190610dc1565b9050919050565b600960009054906101000a900473ffffffffffffffffffffffffffffffffffffffff1673ffffffffffffffffffffffffffffffffffffffff1663f340fa0134336040518363ffffffff1660e01b8152600401610a4a9190610c77565b6000604051808303818588803b158015610a6357600080fd5b505af1158015610a77573d6000803e3d6000fd5b5050505050565b610a866106a1565b15610b1257600960009054906101000a900473ffffffffffffffffffffffffffffffffffffffff1673ffffffffffffffffffffffffffffffffffffffff166343d726d66040518163ffffffff1660e01b8152600401600060405180830381600087803b158015610af557600080fd5b505af1158015610b09573d6000803e3d6000fd5b50505050610b95565b600960009054906101000a900473ffffffffffffffffffffffffffffffffffffffff1673ffffffffffffffffffffffffffffffffffffffff16638c52dc416040518163ffffffff1660e01b8152600401600060405180830381600087803b158015610b7c57600080fd5b505af1158015610b90573d6000803e3d6000fd5b505050505b610b9d610bdd565b565b60006002544211905090565b6000806001544210158015610bc257506002544211155b90506000803414159050818015610bd65750805b9250505090565b565b600081359050610bee81610eec565b92915050565b600060208284031215610c0657600080fd5b6000610c1484828501610bdf565b91505092915050565b610c2681610e2d565b82525050565b610c3581610e1b565b82525050565b610c4481610e3f565b82525050565b610c5381610e75565b82525050565b610c6281610e99565b82525050565b610c7181610e6b565b82525050565b6000602082019050610c8c6000830184610c2c565b92915050565b6000602082019050610ca76000830184610c1d565b92915050565b6000604082019050610cc26000830185610c2c565b610ccf6020830184610c68565b9392505050565b6000602082019050610ceb6000830184610c3b565b92915050565b6000602082019050610d066000830184610c4a565b92915050565b6000602082019050610d216000830184610c59565b92915050565b6000602082019050610d3c6000830184610c68565b92915050565b6000604082019050610d576000830185610c68565b610d646020830184610c68565b9392505050565b6000610d7682610e6b565b9150610d8183610e6b565b9250827fffffffffffffffffffffffffffffffffffffffffffffffffffffffffffffffff03821115610db657610db5610ebd565b5b828201905092915050565b6000610dcc82610e6b565b9150610dd783610e6b565b9250817fffffffffffffffffffffffffffffffffffffffffffffffffffffffffffffffff0483118215151615610e1057610e0f610ebd565b5b828202905092915050565b6000610e2682610e4b565b9050919050565b6000610e3882610e4b565b9050919050565b60008115159050919050565b600073ffffffffffffffffffffffffffffffffffffffff82169050919050565b6000819050919050565b6000610e8082610e87565b9050919050565b6000610e9282610e4b565b9050919050565b6000610ea482610eab565b9050919050565b6000610eb682610e4b565b9050919050565b7f4e487b7100000000000000000000000000000000000000000000000000000000600052601160045260246000fd5b610ef581610e1b565b8114610f0057600080fd5b5056fea2646970667358221220399def8ea7aa25c4ea8cfa3e48a2bca801e1c26a00a70bf9d71cef8804b8baf264736f6c63430008040033608060405234801561001057600080fd5b50604051610e97380380610e9783398181016040528101906100329190610159565b336000806101000a81548173ffffffffffffffffffffffffffffffffffffffff021916908373ffffffffffffffffffffffffffffffffffffffff160217905550600073ffffffffffffffffffffffffffffffffffffffff168173ffffffffffffffffffffffffffffffffffffffff1614156100ac57600080fd5b80600260006101000a81548173ffffffffffffffffffffffffffffffffffffffff021916908373ffffffffffffffffffffffffffffffffffffffff1602179055506000600260146101000a81548160ff02191690836002811115610139577f4e487b7100000000000000000000000000000000000000000000000000000000600052602160045260246000fd5b0217905550506101cb565b600081519050610153816101b4565b92915050565b60006020828403121561016b57600080fd5b600061017984828501610144565b91505092915050565b600061018d82610194565b9050919050565b600073ffffffffffffffffffffffffffffffffffffffff82169050919050565b6101bd81610182565b81146101c857600080fd5b50565b610cbd806101da6000396000f3fe6080604052600436106100865760003560e01c8063c19d93fb11610059578063c19d93fb1461010f578063cb13cddb1461013a578063f2fde38b14610177578063f340fa01146101a0578063fa89401a146101bc57610086565b806343d726d61461008b578063521eb273146100a25780638c52dc41146100cd5780638da5cb5b146100e4575b600080fd5b34801561009757600080fd5b506100a06101e5565b005b3480156100ae57600080fd5b506100b76103b0565b6040516100c49190610acd565b60405180910390f35b3480156100d957600080fd5b506100e26103d6565b005b3480156100f057600080fd5b506100f9610539565b6040516101069190610ab2565b60405180910390f35b34801561011b57600080fd5b5061012461055d565b6040516101319190610ae8565b60405180910390f35b34801561014657600080fd5b50610161600480360381019061015c9190610a24565b610570565b60405161016e9190610b03565b60405180910390f35b34801561018357600080fd5b5061019e60048036038101906101999190610a24565b610588565b005b6101ba60048036038101906101b59190610a24565b6106d7565b005b3480156101c857600080fd5b506101e360048036038101906101de9190610a4d565b61084c565b005b60008054906101000a900473ffffffffffffffffffffffffffffffffffffffff1673ffffffffffffffffffffffffffffffffffffffff163373ffffffffffffffffffffffffffffffffffffffff161461023d57600080fd5b60006002811115610277577f4e487b7100000000000000000000000000000000000000000000000000000000600052602160045260246000fd5b600260149054906101000a900460ff1660028111156102bf577f4e487b7100000000000000000000000000000000000000000000000000000000600052602160045260246000fd5b146102c957600080fd5b60028060146101000a81548160ff02191690836002811115610314577f4e487b7100000000000000000000000000000000000000000000000000000000600052602160045260246000fd5b02179055507f1cdde67b72a90f19919ac732a437ac2f7a10fc128d28c2a6e525d89ce5cd9d3a60405160405180910390a1600260009054906101000a900473ffffffffffffffffffffffffffffffffffffffff1673ffffffffffffffffffffffffffffffffffffffff166108fc479081150290604051600060405180830381858888f193505050501580156103ad573d6000803e3d6000fd5b50565b600260009054906101000a900473ffffffffffffffffffffffffffffffffffffffff1681565b60008054906101000a900473ffffffffffffffffffffffffffffffffffffffff1673ffffffffffffffffffffffffffffffffffffffff163373ffffffffffffffffffffffffffffffffffffffff161461042e57600080fd5b60006002811115610468577f4e487b7100000000000000000000000000000000000000000000000000000000600052602160045260246000fd5b600260149054906101000a900460ff1660028111156104b0577f4e487b7100000000000000000000000000000000000000000000000000000000600052602160045260246000fd5b146104ba57600080fd5b6001600260146101000a81548160ff02191690836002811115610506577f4e487b7100000000000000000000000000000000000000000000000000000000600052602160045260246000fd5b02179055507f599d8e5a83cffb867d051598c4d70e805d59802d8081c1c7d6dffc5b6aca2b8960405160405180910390a1565b60008054906101000a900473ffffffffffffffffffffffffffffffffffffffff1681565b600260149054906101000a900460ff1681565b60016020528060005260406000206000915090505481565b60008054906101000a900473ffffffffffffffffffffffffffffffffffffffff1673ffffffffffffffffffffffffffffffffffffffff163373ffffffffffffffffffffffffffffffffffffffff16146105e057600080fd5b600073ffffffffffffffffffffffffffffffffffffffff168173ffffffffffffffffffffffffffffffffffffffff16141561061a57600080fd5b8073ffffffffffffffffffffffffffffffffffffffff1660008054906101000a900473ffffffffffffffffffffffffffffffffffffffff1673ffffffffffffffffffffffffffffffffffffffff167f8be0079c531659141344cd1fd0a4f28419497f9722a3daafe3b4186f6b6457e060405160405180910390a3806000806101000a81548173ffffffffffffffffffffffffffffffffffffffff021916908373ffffffffffffffffffffffffffffffffffffffff16021790555050565b60008054906101000a900473ffffffffffffffffffffffffffffffffffffffff1673ffffffffffffffffffffffffffffffffffffffff163373ffffffffffffffffffffffffffffffffffffffff161461072f57600080fd5b60006002811115610769577f4e487b7100000000000000000000000000000000000000000000000000000000600052602160045260246000fd5b600260149054906101000a900460ff1660028111156107b1577f4e487b7100000000000000000000000000000000000000000000000000000000600052602160045260246000fd5b146107bb57600080fd5b34600160008373ffffffffffffffffffffffffffffffffffffffff1673ffffffffffffffffffffffffffffffffffffffff168152602001908152602001600020546108069190610b1e565b600160008373ffffffffffffffffffffffffffffffffffffffff1673ffffffffffffffffffffffffffffffffffffffff1681526020019081526020016000208190555050565b60016002811115610886577f4e487b7100000000000000000000000000000000000000000000000000000000600052602160045260246000fd5b600260149054906101000a900460ff1660028111156108ce577f4e487b7100000000000000000000000000000000000000000000000000000000600052602160045260246000fd5b146108d857600080fd5b6000600160008373ffffffffffffffffffffffffffffffffffffffff1673ffffffffffffffffffffffffffffffffffffffff1681526020019081526020016000205490506000600160008473ffffffffffffffffffffffffffffffffffffffff1673ffffffffffffffffffffffffffffffffffffffff168152602001908152602001600020819055508173ffffffffffffffffffffffffffffffffffffffff166108fc829081150290604051600060405180830381858888f193505050501580156109a7573d6000803e3d6000fd5b508173ffffffffffffffffffffffffffffffffffffffff167fd7dee2702d63ad89917b6a4da9981c90c4d24f8c2bdfd64c604ecae57d8d0651826040516109ee9190610b03565b60405180910390a25050565b600081359050610a0981610c59565b92915050565b600081359050610a1e81610c70565b92915050565b600060208284031215610a3657600080fd5b6000610a44848285016109fa565b91505092915050565b600060208284031215610a5f57600080fd5b6000610a6d84828501610a0f565b91505092915050565b610a7f81610b86565b82525050565b610a8e81610b74565b82525050565b610a9d81610bd5565b82525050565b610aac81610bcb565b82525050565b6000602082019050610ac76000830184610a85565b92915050565b6000602082019050610ae26000830184610a76565b92915050565b6000602082019050610afd6000830184610a94565b92915050565b6000602082019050610b186000830184610aa3565b92915050565b6000610b2982610bcb565b9150610b3483610bcb565b9250827fffffffffffffffffffffffffffffffffffffffffffffffffffffffffffffffff03821115610b6957610b68610be7565b5b828201905092915050565b6000610b7f82610bab565b9050919050565b6000610b9182610bab565b9050919050565b6000819050610ba682610c45565b919050565b600073ffffffffffffffffffffffffffffffffffffffff82169050919050565b6000819050919050565b6000610be082610b98565b9050919050565b7f4e487b7100000000000000000000000000000000000000000000000000000000600052601160045260246000fd5b7f4e487b7100000000000000000000000000000000000000000000000000000000600052602160045260246000fd5b60038110610c5657610c55610c16565b5b50565b610c6281610b74565b8114610c6d57600080fd5b50565b610c7981610b86565b8114610c8457600080fd5b5056fea264697066735822122035b3631a49abf36a80b19eb95f833358801acb2f3f5b283d57a737f6da0c8c2964736f6c6343000804003360806040523480156200001157600080fd5b5060405162003894380380620038948339818101604052810190620000379190620004f2565b81818181816005908051906020019062000053929190620003d0565b5080600690805190602001906200006c929190620003d0565b5050506000600760006101000a81548160ff021916908315150217905550620000ae6000801b620000a26200013a60201b60201c565b6200014260201b60201c565b620000ef7f9f2df0fed2c77648de5860a4cc508cd0818c85b8b8a1ab4ceeef8d981c8956a6620000e36200013a60201b60201c565b6200014260201b60201c565b620001307f65d7a28e3265b37a6474929f336521b332c1681b933f6cb9f3376673440d862a620001246200013a60201b60201c565b6200014260201b60201c565b50505050620006d5565b600033905090565b6200015482826200015860201b60201c565b5050565b6200016f8282620001a060201b62000d061760201c565b6200019b81600160008581526020019081526020016000206200029160201b62000de61790919060201c565b505050565b620001b28282620002c960201b60201c565b6200028d57600160008084815260200190815260200160002060000160008373ffffffffffffffffffffffffffffffffffffffff1673ffffffffffffffffffffffffffffffffffffffff16815260200190815260200160002060006101000a81548160ff021916908315150217905550620002326200013a60201b60201c565b73ffffffffffffffffffffffffffffffffffffffff168173ffffffffffffffffffffffffffffffffffffffff16837f2f8788117e7eff1d82e926ec794901d17c78024a50270940304540a733656f0d60405160405180910390a45b5050565b6000620002c1836000018373ffffffffffffffffffffffffffffffffffffffff1660001b6200033360201b60201c565b905092915050565b600080600084815260200190815260200160002060000160008373ffffffffffffffffffffffffffffffffffffffff1673ffffffffffffffffffffffffffffffffffffffff16815260200190815260200160002060009054906101000a900460ff16905092915050565b6000620003478383620003ad60201b60201c565b620003a2578260000182908060018154018082558091505060019003906000526020600020016000909190919091505582600001805490508360010160008481526020019081526020016000208190555060019050620003a7565b600090505b92915050565b600080836001016000848152602001908152602001600020541415905092915050565b828054620003de90620005fa565b90600052602060002090601f0160209004810192826200040257600085556200044e565b82601f106200041d57805160ff19168380011785556200044e565b828001600101855582156200044e579182015b828111156200044d57825182559160200191906001019062000430565b5b5090506200045d919062000461565b5090565b5b808211156200047c57600081600090555060010162000462565b5090565b60006200049762000491846200058e565b62000565565b905082815260208101848484011115620004b057600080fd5b620004bd848285620005c4565b509392505050565b600082601f830112620004d757600080fd5b8151620004e984826020860162000480565b91505092915050565b600080604083850312156200050657600080fd5b600083015167ffffffffffffffff8111156200052157600080fd5b6200052f85828601620004c5565b925050602083015167ffffffffffffffff8111156200054d57600080fd5b6200055b85828601620004c5565b9150509250929050565b60006200057162000584565b90506200057f828262000630565b919050565b6000604051905090565b600067ffffffffffffffff821115620005ac57620005ab62000695565b5b620005b782620006c4565b9050602081019050919050565b60005b83811015620005e4578082015181840152602081019050620005c7565b83811115620005f4576000848401525b50505050565b600060028204905060018216806200061357607f821691505b602082108114156200062a576200062962000666565b5b50919050565b6200063b82620006c4565b810181811067ffffffffffffffff821117156200065d576200065c62000695565b5b80604052505050565b7f4e487b7100000000000000000000000000000000000000000000000000000000600052602260045260246000fd5b7f4e487b7100000000000000000000000000000000000000000000000000000000600052604160045260246000fd5b6000601f19601f8301169050919050565b6131af80620006e56000396000f3fe608060405234801561001057600080fd5b50600436106101c45760003560e01c806370a08231116100f9578063a457c2d711610097578063d539139311610071578063d53913931461052d578063d547741f1461054b578063dd62ed3e14610567578063e63ab1e914610597576101c4565b8063a457c2d71461049d578063a9059cbb146104cd578063ca15c873146104fd576101c4565b80639010d07c116100d35780639010d07c1461040157806391d148541461043157806395d89b4114610461578063a217fddf1461047f576101c4565b806370a08231146103ab57806379cc6790146103db5780638456cb59146103f7576101c4565b8063313ce567116101665780633f4ba83a116101405780633f4ba83a1461034b57806340c10f191461035557806342966c68146103715780635c975abb1461038d576101c4565b8063313ce567146102e157806336568abe146102ff578063395093511461031b576101c4565b806318160ddd116101a257806318160ddd1461024757806323b872dd14610265578063248a9ca3146102955780632f2ff15d146102c5576101c4565b806301ffc9a7146101c957806306fdde03146101f9578063095ea7b314610217575b600080fd5b6101e360048036038101906101de9190612281565b6105b5565b6040516101f09190612699565b60405180910390f35b61020161062f565b60405161020e91906126cf565b60405180910390f35b610231600480360381019061022c91906121a4565b6106c1565b60405161023e9190612699565b60405180910390f35b61024f6106e4565b60405161025c9190612931565b60405180910390f35b61027f600480360381019061027a9190612155565b6106ee565b60405161028c9190612699565b60405180910390f35b6102af60048036038101906102aa91906121e0565b61071d565b6040516102bc91906126b4565b60405180910390f35b6102df60048036038101906102da9190612209565b61073c565b005b6102e961075d565b6040516102f6919061294c565b60405180910390f35b61031960048036038101906103149190612209565b610766565b005b610335600480360381019061033091906121a4565b6107e9565b6040516103429190612699565b60405180910390f35b610353610820565b005b61036f600480360381019061036a91906121a4565b61089a565b005b61038b600480360381019061038691906122aa565b610918565b005b61039561092c565b6040516103a29190612699565b60405180910390f35b6103c560048036038101906103c091906120f0565b610943565b6040516103d29190612931565b60405180910390f35b6103f560048036038101906103f091906121a4565b61098c565b005b6103ff6109ac565b005b61041b60048036038101906104169190612245565b610a26565b604051610428919061267e565b60405180910390f35b61044b60048036038101906104469190612209565b610a55565b6040516104589190612699565b60405180910390f35b610469610abf565b60405161047691906126cf565b60405180910390f35b610487610b51565b60405161049491906126b4565b60405180910390f35b6104b760048036038101906104b291906121a4565b610b58565b6040516104c49190612699565b60405180910390f35b6104e760048036038101906104e291906121a4565b610bcf565b6040516104f49190612699565b60405180910390f35b610517600480360381019061051291906121e0565b610bf2565b6040516105249190612931565b60405180910390f35b610535610c16565b60405161054291906126b4565b60405180910390f35b61056560048036038101906105609190612209565b610c3a565b005b610581600480360381019061057c9190612119565b610c5b565b60405161058e9190612931565b60405180910390f35b61059f610ce2565b6040516105ac91906126b4565b60405180910390f35b60007f5a05180f000000000000000000000000000000000000000000000000000000007bffffffffffffffffffffffffffffffffffffffffffffffffffffffff1916827bffffffffffffffffffffffffffffffffffffffffffffffffffffffff19161480610628575061062782610e16565b5b9050919050565b60606005805461063e90612b5a565b80601f016020809104026020016040519081016040528092919081815260200182805461066a90612b5a565b80156106b75780601f1061068c576101008083540402835291602001916106b7565b820191906000526020600020905b81548152906001019060200180831161069a57829003601f168201915b5050505050905090565b6000806106cc610e90565b90506106d9818585610e98565b600191505092915050565b6000600454905090565b6000806106f9610e90565b9050610706858285611063565b6107118585856110ef565b60019150509392505050565b6000806000838152602001908152602001600020600101549050919050565b6107458261071d565b61074e81611373565b6107588383611387565b505050565b60006012905090565b61076e610e90565b73ffffffffffffffffffffffffffffffffffffffff168173ffffffffffffffffffffffffffffffffffffffff16146107db576040517f08c379a00000000000000000000000000000000000000000000000000000000081526004016107d2906128d1565b60405180910390fd5b6107e582826113bb565b5050565b6000806107f4610e90565b90506108158185856108068589610c5b565b610810919061298e565b610e98565b600191505092915050565b6108517f65d7a28e3265b37a6474929f336521b332c1681b933f6cb9f3376673440d862a61084c610e90565b610a55565b610890576040517f08c379a000000000000000000000000000000000000000000000000000000000815260040161088790612771565b60405180910390fd5b6108986113ef565b565b6108cb7f9f2df0fed2c77648de5860a4cc508cd0818c85b8b8a1ab4ceeef8d981c8956a66108c6610e90565b610a55565b61090a576040517f08c379a000000000000000000000000000000000000000000000000000000000815260040161090190612811565b60405180910390fd5b6109148282611491565b5050565b610929610923610e90565b826115f2565b50565b6000600760009054906101000a900460ff16905090565b6000600260008373ffffffffffffffffffffffffffffffffffffffff1673ffffffffffffffffffffffffffffffffffffffff168152602001908152602001600020549050919050565b61099e82610998610e90565b83611063565b6109a882826115f2565b5050565b6109dd7f65d7a28e3265b37a6474929f336521b332c1681b933f6cb9f3376673440d862a6109d8610e90565b610a55565b610a1c576040517f08c379a0000000000000000000000000000000000000000000000000000000008152600401610a1390612891565b60405180910390fd5b610a246117cb565b565b6000610a4d826001600086815260200190815260200160002061186e90919063ffffffff16565b905092915050565b600080600084815260200190815260200160002060000160008373ffffffffffffffffffffffffffffffffffffffff1673ffffffffffffffffffffffffffffffffffffffff16815260200190815260200160002060009054906101000a900460ff16905092915050565b606060068054610ace90612b5a565b80601f0160208091040260200160405190810160405280929190818152602001828054610afa90612b5a565b8015610b475780601f10610b1c57610100808354040283529160200191610b47565b820191906000526020600020905b815481529060010190602001808311610b2a57829003601f168201915b5050505050905090565b6000801b81565b600080610b63610e90565b90506000610b718286610c5b565b905083811015610bb6576040517f08c379a0000000000000000000000000000000000000000000000000000000008152600401610bad906128b1565b60405180910390fd5b610bc38286868403610e98565b60019250505092915050565b600080610bda610e90565b9050610be78185856110ef565b600191505092915050565b6000610c0f60016000848152602001908152602001600020611888565b9050919050565b7f9f2df0fed2c77648de5860a4cc508cd0818c85b8b8a1ab4ceeef8d981c8956a681565b610c438261071d565b610c4c81611373565b610c5683836113bb565b505050565b6000600360008473ffffffffffffffffffffffffffffffffffffffff1673ffffffffffffffffffffffffffffffffffffffff16815260200190815260200160002060008373ffffffffffffffffffffffffffffffffffffffff1673ffffffffffffffffffffffffffffffffffffffff16815260200190815260200160002054905092915050565b7f65d7a28e3265b37a6474929f336521b332c1681b933f6cb9f3376673440d862a81565b610d108282610a55565b610de257600160008084815260200190815260200160002060000160008373ffffffffffffffffffffffffffffffffffffffff1673ffffffffffffffffffffffffffffffffffffffff16815260200190815260200160002060006101000a81548160ff021916908315150217905550610d87610e90565b73ffffffffffffffffffffffffffffffffffffffff168173ffffffffffffffffffffffffffffffffffffffff16837f2f8788117e7eff1d82e926ec794901d17c78024a50270940304540a733656f0d60405160405180910390a45b5050565b6000610e0e836000018373ffffffffffffffffffffffffffffffffffffffff1660001b61189d565b905092915050565b60007f7965db0b000000000000000000000000000000000000000000000000000000007bffffffffffffffffffffffffffffffffffffffffffffffffffffffff1916827bffffffffffffffffffffffffffffffffffffffffffffffffffffffff19161480610e895750610e888261190d565b5b9050919050565b600033905090565b600073ffffffffffffffffffffffffffffffffffffffff168373ffffffffffffffffffffffffffffffffffffffff161415610f08576040517f08c379a0000000000000000000000000000000000000000000000000000000008152600401610eff90612871565b60405180910390fd5b600073ffffffffffffffffffffffffffffffffffffffff168273ffffffffffffffffffffffffffffffffffffffff161415610f78576040517f08c379a0000000000000000000000000000000000000000000000000000000008152600401610f6f90612791565b60405180910390fd5b80600360008573ffffffffffffffffffffffffffffffffffffffff1673ffffffffffffffffffffffffffffffffffffffff16815260200190815260200160002060008473ffffffffffffffffffffffffffffffffffffffff1673ffffffffffffffffffffffffffffffffffffffff168152602001908152602001600020819055508173ffffffffffffffffffffffffffffffffffffffff168373ffffffffffffffffffffffffffffffffffffffff167f8c5be1e5ebec7d5bd14f71427d1e84f3dd0314c0f7b2291e5b200ac8c7c3b925836040516110569190612931565b60405180910390a3505050565b600061106f8484610c5b565b90507fffffffffffffffffffffffffffffffffffffffffffffffffffffffffffffffff81146110e957818110156110db576040517f08c379a00000000000000000000000000000000000000000000000000000000081526004016110d2906127b1565b60405180910390fd5b6110e88484848403610e98565b5b50505050565b600073ffffffffffffffffffffffffffffffffffffffff168373ffffffffffffffffffffffffffffffffffffffff16141561115f576040517f08c379a000000000000000000000000000000000000000000000000000000000815260040161115690612851565b60405180910390fd5b600073ffffffffffffffffffffffffffffffffffffffff168273ffffffffffffffffffffffffffffffffffffffff1614156111cf576040517f08c379a00000000000000000000000000000000000000000000000000000000081526004016111c690612711565b60405180910390fd5b6111da838383611977565b6000600260008573ffffffffffffffffffffffffffffffffffffffff1673ffffffffffffffffffffffffffffffffffffffff16815260200190815260200160002054905081811015611261576040517f08c379a0000000000000000000000000000000000000000000000000000000008152600401611258906127d1565b60405180910390fd5b818103600260008673ffffffffffffffffffffffffffffffffffffffff1673ffffffffffffffffffffffffffffffffffffffff1681526020019081526020016000208190555081600260008573ffffffffffffffffffffffffffffffffffffffff1673ffffffffffffffffffffffffffffffffffffffff16815260200190815260200160002060008282546112f6919061298e565b925050819055508273ffffffffffffffffffffffffffffffffffffffff168473ffffffffffffffffffffffffffffffffffffffff167fddf252ad1be2c89b69c2b068fc378daa952ba7f163c4a11628f55a4df523b3ef8460405161135a9190612931565b60405180910390a361136d848484611987565b50505050565b6113848161137f610e90565b61198c565b50565b6113918282610d06565b6113b68160016000858152602001908152602001600020610de690919063ffffffff16565b505050565b6113c58282611a29565b6113ea8160016000858152602001908152602001600020611b0a90919063ffffffff16565b505050565b6113f761092c565b611436576040517f08c379a000000000000000000000000000000000000000000000000000000000815260040161142d90612731565b60405180910390fd5b6000600760006101000a81548160ff0219169083151502179055507f5db9ee0a495bf2e6ff9c91a7834c1ba4fdd244a5e8aa4e537bd38aeae4b073aa61147a610e90565b604051611487919061267e565b60405180910390a1565b600073ffffffffffffffffffffffffffffffffffffffff168273ffffffffffffffffffffffffffffffffffffffff161415611501576040517f08c379a00000000000000000000000000000000000000000000000000000000081526004016114f8906128f1565b60405180910390fd5b61150d60008383611977565b806004600082825461151f919061298e565b9250508190555080600260008473ffffffffffffffffffffffffffffffffffffffff1673ffffffffffffffffffffffffffffffffffffffff1681526020019081526020016000206000828254611575919061298e565b925050819055508173ffffffffffffffffffffffffffffffffffffffff16600073ffffffffffffffffffffffffffffffffffffffff167fddf252ad1be2c89b69c2b068fc378daa952ba7f163c4a11628f55a4df523b3ef836040516115da9190612931565b60405180910390a36115ee60008383611987565b5050565b600073ffffffffffffffffffffffffffffffffffffffff168273ffffffffffffffffffffffffffffffffffffffff161415611662576040517f08c379a000000000000000000000000000000000000000000000000000000000815260040161165990612831565b60405180910390fd5b61166e82600083611977565b6000600260008473ffffffffffffffffffffffffffffffffffffffff1673ffffffffffffffffffffffffffffffffffffffff168152602001908152602001600020549050818110156116f5576040517f08c379a00000000000000000000000000000000000000000000000000000000081526004016116ec90612751565b60405180910390fd5b818103600260008573ffffffffffffffffffffffffffffffffffffffff1673ffffffffffffffffffffffffffffffffffffffff16815260200190815260200160002081905550816004600082825461174d9190612a3e565b92505081905550600073ffffffffffffffffffffffffffffffffffffffff168373ffffffffffffffffffffffffffffffffffffffff167fddf252ad1be2c89b69c2b068fc378daa952ba7f163c4a11628f55a4df523b3ef846040516117b29190612931565b60405180910390a36117c683600084611987565b505050565b6117d361092c565b15611813576040517f08c379a000000000000000000000000000000000000000000000000000000000815260040161180a906127f1565b60405180910390fd5b6001600760006101000a81548160ff0219169083151502179055507f62e78cea01bee320cd4e420270b5ea74000d11b0c9f74754ebdbfc544b05a258611857610e90565b604051611864919061267e565b60405180910390a1565b600061187d8360000183611b3a565b60001c905092915050565b600061189682600001611b8b565b9050919050565b60006118a98383611b9c565b611902578260000182908060018154018082558091505060019003906000526020600020016000909190919091505582600001805490508360010160008481526020019081526020016000208190555060019050611907565b600090505b92915050565b60007f01ffc9a7000000000000000000000000000000000000000000000000000000007bffffffffffffffffffffffffffffffffffffffffffffffffffffffff1916827bffffffffffffffffffffffffffffffffffffffffffffffffffffffff1916149050919050565b611982838383611bbf565b505050565b505050565b6119968282610a55565b611a25576119bb8173ffffffffffffffffffffffffffffffffffffffff166014611c17565b6119c98360001c6020611c17565b6040516020016119da929190612644565b6040516020818303038152906040526040517f08c379a0000000000000000000000000000000000000000000000000000000008152600401611a1c91906126cf565b60405180910390fd5b5050565b611a338282610a55565b15611b0657600080600084815260200190815260200160002060000160008373ffffffffffffffffffffffffffffffffffffffff1673ffffffffffffffffffffffffffffffffffffffff16815260200190815260200160002060006101000a81548160ff021916908315150217905550611aab610e90565b73ffffffffffffffffffffffffffffffffffffffff168173ffffffffffffffffffffffffffffffffffffffff16837ff6391f5c32d9c69d2a47ea670b442974b53935d1edc7fd64eb21e047a839171b60405160405180910390a45b5050565b6000611b32836000018373ffffffffffffffffffffffffffffffffffffffff1660001b611f11565b905092915050565b6000826000018281548110611b78577f4e487b7100000000000000000000000000000000000000000000000000000000600052603260045260246000fd5b9060005260206000200154905092915050565b600081600001805490509050919050565b600080836001016000848152602001908152602001600020541415905092915050565b611bca838383612097565b611bd261092c565b15611c12576040517f08c379a0000000000000000000000000000000000000000000000000000000008152600401611c0990612911565b60405180910390fd5b505050565b606060006002836002611c2a91906129e4565b611c34919061298e565b67ffffffffffffffff811115611c73577f4e487b7100000000000000000000000000000000000000000000000000000000600052604160045260246000fd5b6040519080825280601f01601f191660200182016040528015611ca55781602001600182028036833780820191505090505b5090507f300000000000000000000000000000000000000000000000000000000000000081600081518110611d03577f4e487b7100000000000000000000000000000000000000000000000000000000600052603260045260246000fd5b60200101907effffffffffffffffffffffffffffffffffffffffffffffffffffffffffffff1916908160001a9053507f780000000000000000000000000000000000000000000000000000000000000081600181518110611d8d577f4e487b7100000000000000000000000000000000000000000000000000000000600052603260045260246000fd5b60200101907effffffffffffffffffffffffffffffffffffffffffffffffffffffffffffff1916908160001a90535060006001846002611dcd91906129e4565b611dd7919061298e565b90505b6001811115611ec3577f3031323334353637383961626364656600000000000000000000000000000000600f861660108110611e3f577f4e487b7100000000000000000000000000000000000000000000000000000000600052603260045260246000fd5b1a60f81b828281518110611e7c577f4e487b7100000000000000000000000000000000000000000000000000000000600052603260045260246000fd5b60200101907effffffffffffffffffffffffffffffffffffffffffffffffffffffffffffff1916908160001a905350600485901c945080611ebc90612b30565b9050611dda565b5060008414611f07576040517f08c379a0000000000000000000000000000000000000000000000000000000008152600401611efe906126f1565b60405180910390fd5b8091505092915050565b6000808360010160008481526020019081526020016000205490506000811461208b576000600182611f439190612a3e565b9050600060018660000180549050611f5b9190612a3e565b9050818114612016576000866000018281548110611fa2577f4e487b7100000000000000000000000000000000000000000000000000000000600052603260045260246000fd5b9060005260206000200154905080876000018481548110611fec577f4e487b7100000000000000000000000000000000000000000000000000000000600052603260045260246000fd5b90600052602060002001819055508387600101600083815260200190815260200160002081905550505b85600001805480612050577f4e487b7100000000000000000000000000000000000000000000000000000000600052603160045260246000fd5b600190038181906000526020600020016000905590558560010160008681526020019081526020016000206000905560019350505050612091565b60009150505b92915050565b505050565b6000813590506120ab8161311d565b92915050565b6000813590506120c081613134565b92915050565b6000813590506120d58161314b565b92915050565b6000813590506120ea81613162565b92915050565b60006020828403121561210257600080fd5b60006121108482850161209c565b91505092915050565b6000806040838503121561212c57600080fd5b600061213a8582860161209c565b925050602061214b8582860161209c565b9150509250929050565b60008060006060848603121561216a57600080fd5b60006121788682870161209c565b93505060206121898682870161209c565b925050604061219a868287016120db565b9150509250925092565b600080604083850312156121b757600080fd5b60006121c58582860161209c565b92505060206121d6858286016120db565b9150509250929050565b6000602082840312156121f257600080fd5b6000612200848285016120b1565b91505092915050565b6000806040838503121561221c57600080fd5b600061222a858286016120b1565b925050602061223b8582860161209c565b9150509250929050565b6000806040838503121561225857600080fd5b6000612266858286016120b1565b9250506020612277858286016120db565b9150509250929050565b60006020828403121561229357600080fd5b60006122a1848285016120c6565b91505092915050565b6000602082840312156122bc57600080fd5b60006122ca848285016120db565b91505092915050565b6122dc81612a72565b82525050565b6122eb81612a84565b82525050565b6122fa81612a90565b82525050565b600061230b82612967565b6123158185612972565b9350612325818560208601612afd565b61232e81612bea565b840191505092915050565b600061234482612967565b61234e8185612983565b935061235e818560208601612afd565b80840191505092915050565b6000612377602083612972565b915061238282612bfb565b602082019050919050565b600061239a602383612972565b91506123a582612c24565b604082019050919050565b60006123bd601483612972565b91506123c882612c73565b602082019050919050565b60006123e0602283612972565b91506123eb82612c9c565b604082019050919050565b6000612403603983612972565b915061240e82612ceb565b604082019050919050565b6000612426602283612972565b915061243182612d3a565b604082019050919050565b6000612449601d83612972565b915061245482612d89565b602082019050919050565b600061246c602683612972565b915061247782612db2565b604082019050919050565b600061248f601083612972565b915061249a82612e01565b602082019050919050565b60006124b2603683612972565b91506124bd82612e2a565b604082019050919050565b60006124d5602183612972565b91506124e082612e79565b604082019050919050565b60006124f8602583612972565b915061250382612ec8565b604082019050919050565b600061251b602483612972565b915061252682612f17565b604082019050919050565b600061253e603783612972565b915061254982612f66565b604082019050919050565b6000612561601783612983565b915061256c82612fb5565b601782019050919050565b6000612584602583612972565b915061258f82612fde565b604082019050919050565b60006125a7601183612983565b91506125b28261302d565b601182019050919050565b60006125ca602f83612972565b91506125d582613056565b604082019050919050565b60006125ed601f83612972565b91506125f8826130a5565b602082019050919050565b6000612610602a83612972565b915061261b826130ce565b604082019050919050565b61262f81612ae6565b82525050565b61263e81612af0565b82525050565b600061264f82612554565b915061265b8285612339565b91506126668261259a565b91506126728284612339565b91508190509392505050565b600060208201905061269360008301846122d3565b92915050565b60006020820190506126ae60008301846122e2565b92915050565b60006020820190506126c960008301846122f1565b92915050565b600060208201905081810360008301526126e98184612300565b905092915050565b6000602082019050818103600083015261270a8161236a565b9050919050565b6000602082019050818103600083015261272a8161238d565b9050919050565b6000602082019050818103600083015261274a816123b0565b9050919050565b6000602082019050818103600083015261276a816123d3565b9050919050565b6000602082019050818103600083015261278a816123f6565b9050919050565b600060208201905081810360008301526127aa81612419565b9050919050565b600060208201905081810360008301526127ca8161243c565b9050919050565b600060208201905081810360008301526127ea8161245f565b9050919050565b6000602082019050818103600083015261280a81612482565b9050919050565b6000602082019050818103600083015261282a816124a5565b9050919050565b6000602082019050818103600083015261284a816124c8565b9050919050565b6000602082019050818103600083015261286a816124eb565b9050919050565b6000602082019050818103600083015261288a8161250e565b9050919050565b600060208201905081810360008301526128aa81612531565b9050919050565b600060208201905081810360008301526128ca81612577565b9050919050565b600060208201905081810360008301526128ea816125bd565b9050919050565b6000602082019050818103600083015261290a816125e0565b9050919050565b6000602082019050818103600083015261292a81612603565b9050919050565b60006020820190506129466000830184612626565b92915050565b60006020820190506129616000830184612635565b92915050565b600081519050919050565b600082825260208201905092915050565b600081905092915050565b600061299982612ae6565b91506129a483612ae6565b9250827fffffffffffffffffffffffffffffffffffffffffffffffffffffffffffffffff038211156129d9576129d8612b8c565b5b828201905092915050565b60006129ef82612ae6565b91506129fa83612ae6565b9250817fffffffffffffffffffffffffffffffffffffffffffffffffffffffffffffffff0483118215151615612a3357612a32612b8c565b5b828202905092915050565b6000612a4982612ae6565b9150612a5483612ae6565b925082821015612a6757612a66612b8c565b5b828203905092915050565b6000612a7d82612ac6565b9050919050565b60008115159050919050565b6000819050919050565b60007fffffffff0000000000000000000000000000000000000000000000000000000082169050919050565b600073ffffffffffffffffffffffffffffffffffffffff82169050919050565b6000819050919050565b600060ff82169050919050565b60005b83811015612b1b578082015181840152602081019050612b00565b83811115612b2a576000848401525b50505050565b6000612b3b82612ae6565b91506000821415612b4f57612b4e612b8c565b5b600182039050919050565b60006002820490506001821680612b7257607f821691505b60208210811415612b8657612b85612bbb565b5b50919050565b7f4e487b7100000000000000000000000000000000000000000000000000000000600052601160045260246000fd5b7f4e487b7100000000000000000000000000000000000000000000000000000000600052602260045260246000fd5b6000601f19601f8301169050919050565b7f537472696e67733a20686578206c656e67746820696e73756666696369656e74600082015250565b7f45524332303a207472616e7366657220746f20746865207a65726f206164647260008201527f6573730000000000000000000000000000000000000000000000000000000000602082015250565b7f5061757361626c653a206e6f7420706175736564000000000000000000000000600082015250565b7f45524332303a206275726e20616d6f756e7420657863656564732062616c616e60008201527f6365000000000000000000000000000000000000000000000000000000000000602082015250565b7f45524332305072657365744d696e7465725061757365723a206d75737420686160008201527f76652070617573657220726f6c6520746f20756e706175736500000000000000602082015250565b7f45524332303a20617070726f766520746f20746865207a65726f20616464726560008201527f7373000000000000000000000000000000000000000000000000000000000000602082015250565b7f45524332303a20696e73756666696369656e7420616c6c6f77616e6365000000600082015250565b7f45524332303a207472616e7366657220616d6f756e742065786365656473206260008201527f616c616e63650000000000000000000000000000000000000000000000000000602082015250565b7f5061757361626c653a2070617573656400000000000000000000000000000000600082015250565b7f45524332305072657365744d696e7465725061757365723a206d75737420686160008201527f7665206d696e74657220726f6c6520746f206d696e7400000000000000000000602082015250565b7f45524332303a206275726e2066726f6d20746865207a65726f2061646472657360008201527f7300000000000000000000000000000000000000000000000000000000000000602082015250565b7f45524332303a207472616e736665722066726f6d20746865207a65726f20616460008201527f6472657373000000000000000000000000000000000000000000000000000000602082015250565b7f45524332303a20617070726f76652066726f6d20746865207a65726f2061646460008201527f7265737300000000000000000000000000000000000000000000000000000000602082015250565b7f45524332305072657365744d696e7465725061757365723a206d75737420686160008201527f76652070617573657220726f6c6520746f207061757365000000000000000000602082015250565b7f416363657373436f6e74726f6c3a206163636f756e7420000000000000000000600082015250565b7f45524332303a2064656372656173656420616c6c6f77616e63652062656c6f7760008201527f207a65726f000000000000000000000000000000000000000000000000000000602082015250565b7f206973206d697373696e6720726f6c6520000000000000000000000000000000600082015250565b7f416363657373436f6e74726f6c3a2063616e206f6e6c792072656e6f756e636560008201527f20726f6c657320666f722073656c660000000000000000000000000000000000602082015250565b7f45524332303a206d696e7420746f20746865207a65726f206164647265737300600082015250565b7f45524332305061757361626c653a20746f6b656e207472616e7366657220776860008201527f696c652070617573656400000000000000000000000000000000000000000000602082015250565b61312681612a72565b811461313157600080fd5b50565b61313d81612a90565b811461314857600080fd5b50565b61315481612a9a565b811461315f57600080fd5b50565b61316b81612ae6565b811461317657600080fd5b5056fea2646970667358221220064a1aab876846cd5b62f92e51f5e13f9a76d0edad99c4d5e0365a86ec3bd47264736f6c63430008040033",
  "immutableReferences": {},
  "source": "//SPDX-License-Identifier:UNLICENSED\r\npragma solidity ^0.8.4;\r\n\r\nimport \"./crowdsale/CappedCrowdsale.sol\";\r\nimport \"./crowdsale/FinalizableCrowdsale.sol\";\r\nimport \"./crowdsale/RefundableCrowdsale.sol\";\r\nimport \"./Token.sol\";\r\n\r\ncontract ExampleTokenCrowdsale is CappedCrowdsale, FinalizableCrowdsale ,RefundableCrowdsale{\r\n    constructor(\r\n        uint256 _startTime,\r\n        uint256 _endTime,\r\n        uint256 _rate,\r\n        uint256 _cap,\r\n        address payable _wallet,\r\n        string memory _name,\r\n        string memory _symbol,\r\n        uint256 _goal\r\n    )\r\n        CappedCrowdsale(_cap)\r\n        RefundableCrowdsale(_goal)\r\n        Crowdsale(_startTime, _endTime, _rate, _wallet, _name, _symbol)\r\n    {\r\n        require(_goal<=_cap);\r\n    }\r\n\r\n    // Create a custom token to mint instead of the default MintableToken\r\n    function createTokenContract(string memory _name, string memory _symbol)\r\n        internal\r\n        override\r\n        returns (ERC20PresetMinterPauser)\r\n    {\r\n        return new Token(_name, _symbol);\r\n    }\r\n\r\n    // Override to indicate when the crowdsale ends and does not accept any more contributions\r\n    // Checks endTime by default, plus cap from CappedCrowdsale\r\n    function hasEnded()\r\n        public\r\n        view\r\n        override(Crowdsale, CappedCrowdsale)\r\n        returns (bool)\r\n    {\r\n        return super.hasEnded();\r\n    }\r\n\r\n    // Override this method to have a way to add business logic to your crowdsale when buying\r\n    // Returns weiAmount times rate by default\r\n    function getTokenAmount(uint256 weiAmount)\r\n        internal\r\n        view\r\n        override\r\n        returns (uint256)\r\n    {\r\n        return super.getTokenAmount(weiAmount);\r\n    }\r\n\r\n    // Override to create custom fund forwarding mechanisms\r\n    // Forwards funds to the specified wallet by default\r\n    function forwardFunds() internal override(Crowdsale,RefundableCrowdsale) {\r\n        return super.forwardFunds();\r\n    }\r\n\r\n    // Criteria for accepting a purchase\r\n    // Make sure to call super.validPurchase(), or all the criteria from parents will be overwritten.\r\n    function validPurchase()\r\n        internal\r\n        view\r\n        override(Crowdsale, CappedCrowdsale)\r\n        returns (bool)\r\n    {\r\n        return super.validPurchase();\r\n    }\r\n\r\n    // Override to execute any logic once the crowdsale finalizes\r\n    // Requires a call to the public finalize method, only after the sale hasEnded\r\n    // Remember that super.finalization() calls the token finishMinting(),\r\n    // so no new tokens can be minted after that\r\n    function finalization() internal override(FinalizableCrowdsale,RefundableCrowdsale) {\r\n        super.finalization();\r\n    }\r\n}\r\n",
  "sourcePath": "C:\\Users\\MY\\Desktop\\Rapid_Projects\\ICO\\contracts\\ExampleTokenCrowdsale.sol",
  "compiler": {
    "name": "solc",
    "version": "0.8.4+commit.c7e474f2.Emscripten.clang"
  },
  "schemaVersion": "3.4.7",
  "updatedAt": "2022-05-05T09:55:47.281Z",
  "networkType": "ethereum",
  "devdoc": {
    "kind": "dev",
    "methods": {
      "finalize()": {
        "details": "Must be called after crowdsale ends, to do some extra finalization work. Calls the contract's finalization function."
      },
      "transferOwnership(address)": {
        "details": "Allows the current owner to transfer control of the contract to a newOwner.",
        "params": {
          "newOwner": "The address to transfer ownership to."
        }
      }
    },
    "version": 1
  },
  "userdoc": {
    "events": {
      "TokenPurchase(address,address,uint256,uint256)": {
        "notice": "event for token purchase logging"
      }
    },
    "kind": "user",
    "methods": {},
    "version": 1
  }
}