{
  "contractName": "ExampleTokenCrowdsale",
  "abi": [
    {
      "inputs": [
        {
          "internalType": "uint256",
          "name": "_rate",
          "type": "uint256"
        },
        {
          "internalType": "address payable",
          "name": "_wallet",
          "type": "address"
        },
        {
          "internalType": "contract ERC20",
          "name": "_token",
          "type": "address"
        },
        {
          "internalType": "uint256",
          "name": "_cap",
          "type": "uint256"
        },
        {
          "internalType": "uint256",
          "name": "_openingTime",
          "type": "uint256"
        },
        {
          "internalType": "uint256",
          "name": "_closingTime",
          "type": "uint256"
        }
      ],
      "stateMutability": "nonpayable",
      "type": "constructor"
    },
    {
      "anonymous": false,
      "inputs": [
        {
          "indexed": false,
          "internalType": "uint256",
          "name": "prevClosingTime",
          "type": "uint256"
        },
        {
          "indexed": false,
          "internalType": "uint256",
          "name": "newClosingTime",
          "type": "uint256"
        }
      ],
      "name": "TimedCrowdsaleExtended",
      "type": "event"
    },
    {
      "anonymous": false,
      "inputs": [
        {
          "indexed": true,
          "internalType": "address",
          "name": "purchaser",
          "type": "address"
        },
        {
          "indexed": true,
          "internalType": "address",
          "name": "beneficiary",
          "type": "address"
        },
        {
          "indexed": false,
          "internalType": "uint256",
          "name": "value",
          "type": "uint256"
        },
        {
          "indexed": false,
          "internalType": "uint256",
          "name": "amount",
          "type": "uint256"
        }
      ],
      "name": "TokensPurchased",
      "type": "event"
    },
    {
      "inputs": [
        {
          "internalType": "address",
          "name": "beneficiary",
          "type": "address"
        }
      ],
      "name": "buyTokens",
      "outputs": [],
      "stateMutability": "payable",
      "type": "function",
      "payable": true
    },
    {
      "inputs": [],
      "name": "cap",
      "outputs": [
        {
          "internalType": "uint256",
          "name": "",
          "type": "uint256"
        }
      ],
      "stateMutability": "view",
      "type": "function",
      "constant": true
    },
    {
      "inputs": [],
      "name": "capReached",
      "outputs": [
        {
          "internalType": "bool",
          "name": "",
          "type": "bool"
        }
      ],
      "stateMutability": "nonpayable",
      "type": "function"
    },
    {
      "inputs": [],
      "name": "closingTime",
      "outputs": [
        {
          "internalType": "uint256",
          "name": "",
          "type": "uint256"
        }
      ],
      "stateMutability": "view",
      "type": "function",
      "constant": true
    },
    {
      "inputs": [
        {
          "internalType": "address",
          "name": "",
          "type": "address"
        }
      ],
      "name": "contributions",
      "outputs": [
        {
          "internalType": "uint256",
          "name": "",
          "type": "uint256"
        }
      ],
      "stateMutability": "view",
      "type": "function",
      "constant": true
    },
    {
      "inputs": [],
      "name": "hasClosed",
      "outputs": [
        {
          "internalType": "bool",
          "name": "",
          "type": "bool"
        }
      ],
      "stateMutability": "view",
      "type": "function",
      "constant": true
    },
    {
      "inputs": [],
      "name": "investorHardCap",
      "outputs": [
        {
          "internalType": "uint256",
          "name": "",
          "type": "uint256"
        }
      ],
      "stateMutability": "view",
      "type": "function",
      "constant": true
    },
    {
      "inputs": [],
      "name": "investorMinCap",
      "outputs": [
        {
          "internalType": "uint256",
          "name": "",
          "type": "uint256"
        }
      ],
      "stateMutability": "view",
      "type": "function",
      "constant": true
    },
    {
      "inputs": [],
      "name": "isOpen",
      "outputs": [
        {
          "internalType": "bool",
          "name": "",
          "type": "bool"
        }
      ],
      "stateMutability": "view",
      "type": "function",
      "constant": true
    },
    {
      "inputs": [],
      "name": "openingTime",
      "outputs": [
        {
          "internalType": "uint256",
          "name": "",
          "type": "uint256"
        }
      ],
      "stateMutability": "view",
      "type": "function",
      "constant": true
    },
    {
      "inputs": [],
      "name": "rate",
      "outputs": [
        {
          "internalType": "uint256",
          "name": "",
          "type": "uint256"
        }
      ],
      "stateMutability": "view",
      "type": "function",
      "constant": true
    },
    {
      "inputs": [],
      "name": "token",
      "outputs": [
        {
          "internalType": "contract IERC20",
          "name": "",
          "type": "address"
        }
      ],
      "stateMutability": "view",
      "type": "function",
      "constant": true
    },
    {
      "inputs": [],
      "name": "wallet",
      "outputs": [
        {
          "internalType": "address payable",
          "name": "",
          "type": "address"
        }
      ],
      "stateMutability": "view",
      "type": "function",
      "constant": true
    },
    {
      "inputs": [],
      "name": "weiRaised",
      "outputs": [
        {
          "internalType": "uint256",
          "name": "",
          "type": "uint256"
        }
      ],
      "stateMutability": "view",
      "type": "function",
      "constant": true
    },
    {
      "stateMutability": "payable",
      "type": "receive",
      "payable": true
    }
  ],
  "bytecode": "0x60806040526801158e460913d000006008556802b5e3af16b18800006009553480156200002b57600080fd5b5060405162001ab338038062001ab3833981810160405281019062000051919062000319565b818184888888600160008190555060008311620000a5576040517f08c379a00000000000000000000000000000000000000000000000000000000081526004016200009c90620004d8565b60405180910390fd5b600073ffffffffffffffffffffffffffffffffffffffff168273ffffffffffffffffffffffffffffffffffffffff16141562000118576040517f08c379a00000000000000000000000000000000000000000000000000000000081526004016200010f90620004fa565b60405180910390fd5b600073ffffffffffffffffffffffffffffffffffffffff168173ffffffffffffffffffffffffffffffffffffffff1614156200018b576040517f08c379a00000000000000000000000000000000000000000000000000000000081526004016200018290620004b6565b60405180910390fd5b8260038190555081600260006101000a81548173ffffffffffffffffffffffffffffffffffffffff021916908373ffffffffffffffffffffffffffffffffffffffff16021790555080600160006101000a81548173ffffffffffffffffffffffffffffffffffffffff021916908373ffffffffffffffffffffffffffffffffffffffff160217905550505050600081116200022557600080fd5b80600581905550504282101562000273576040517f08c379a00000000000000000000000000000000000000000000000000000000081526004016200026a9062000472565b60405180910390fd5b818111620002b8576040517f08c379a0000000000000000000000000000000000000000000000000000000008152600401620002af9062000494565b60405180910390fd5b8160068190555080600781905550505050505050505062000746565b600081519050620002e581620006f8565b92915050565b600081519050620002fc8162000712565b92915050565b60008151905062000313816200072c565b92915050565b60008060008060008060c087890312156200033357600080fd5b60006200034389828a0162000302565b96505060206200035689828a01620002d4565b95505060406200036989828a01620002eb565b94505060606200037c89828a0162000302565b93505060806200038f89828a0162000302565b92505060a0620003a289828a0162000302565b9150509295509295509295565b6000620003be6033836200051c565b9150620003cb8262000593565b604082019050919050565b6000620003e56037836200051c565b9150620003f282620005e2565b604082019050919050565b60006200040c6024836200051c565b9150620004198262000631565b604082019050919050565b6000620004336014836200051c565b9150620004408262000680565b602082019050919050565b60006200045a6025836200051c565b91506200046782620006a9565b604082019050919050565b600060208201905081810360008301526200048d81620003af565b9050919050565b60006020820190508181036000830152620004af81620003d6565b9050919050565b60006020820190508181036000830152620004d181620003fd565b9050919050565b60006020820190508181036000830152620004f38162000424565b9050919050565b6000602082019050818103600083015262000515816200044b565b9050919050565b600082825260208201905092915050565b60006200053a8262000569565b9050919050565b60006200054e8262000569565b9050919050565b600062000562826200052d565b9050919050565b600073ffffffffffffffffffffffffffffffffffffffff82169050919050565b6000819050919050565b7f54696d656443726f776473616c653a206f70656e696e672074696d652069732060008201527f6265666f72652063757272656e742074696d6500000000000000000000000000602082015250565b7f54696d656443726f776473616c653a206f70656e696e672074696d652069732060008201527f6e6f74206265666f726520636c6f73696e672074696d65000000000000000000602082015250565b7f43726f776473616c653a20746f6b656e20697320746865207a65726f2061646460008201527f7265737300000000000000000000000000000000000000000000000000000000602082015250565b7f43726f776473616c653a20726174652069732030000000000000000000000000600082015250565b7f43726f776473616c653a2077616c6c657420697320746865207a65726f20616460008201527f6472657373000000000000000000000000000000000000000000000000000000602082015250565b620007038162000541565b81146200070f57600080fd5b50565b6200071d8162000555565b81146200072957600080fd5b50565b620007378162000589565b81146200074357600080fd5b50565b61135d80620007566000396000f3fe6080604052600436106100e15760003560e01c80634f9359451161007f578063b7a8807c11610059578063b7a8807c146102bd578063ec8ac4d8146102e8578063ed5db87414610304578063fc0c546a1461032f576100f8565b80634f9359451461023c578063521eb27314610267578063b25d7f5414610292576100f8565b80634042b66f116100bb5780634042b66f1461017e57806342e94c90146101a957806347535d7b146101e65780634b6753bc14610211576100f8565b80631515bc2b146100fd5780632c4e722e14610128578063355274ea14610153576100f8565b366100f8576100f66100f161035a565b610362565b005b600080fd5b34801561010957600080fd5b50610112610488565b60405161011f9190610e19565b60405180910390f35b34801561013457600080fd5b5061013d610494565b60405161014a9190610f51565b60405180910390f35b34801561015f57600080fd5b5061016861049e565b6040516101759190610f51565b60405180910390f35b34801561018a57600080fd5b506101936104a4565b6040516101a09190610f51565b60405180910390f35b3480156101b557600080fd5b506101d060048036038101906101cb9190610bc2565b6104ae565b6040516101dd9190610f51565b60405180910390f35b3480156101f257600080fd5b506101fb6104c6565b6040516102089190610e19565b60405180910390f35b34801561021d57600080fd5b506102266104e1565b6040516102339190610f51565b60405180910390f35b34801561024857600080fd5b506102516104eb565b60405161025e9190610e19565b60405180910390f35b34801561027357600080fd5b5061027c61050e565b6040516102899190610dd5565b60405180910390f35b34801561029e57600080fd5b506102a7610538565b6040516102b49190610f51565b60405180910390f35b3480156102c957600080fd5b506102d261053e565b6040516102df9190610f51565b60405180910390f35b61030260048036038101906102fd9190610bc2565b610362565b005b34801561031057600080fd5b50610319610548565b6040516103269190610f51565b60405180910390f35b34801561033b57600080fd5b5061034461054e565b6040516103519190610e34565b60405180910390f35b600033905090565b600260005414156103a8576040517f08c379a000000000000000000000000000000000000000000000000000000000815260040161039f90610f11565b60405180910390fd5b600260008190555060003490506103bf8282610578565b60006103ca8261063d565b90506103e18260045461065b90919063ffffffff16565b6004819055506103f18382610671565b8273ffffffffffffffffffffffffffffffffffffffff1661041061035a565b73ffffffffffffffffffffffffffffffffffffffff167f6faf93231a456e552dbc9961f58d9713ee4f2e69d15f1975b050ef0911053a7b8484604051610457929190610f6c565b60405180910390a3610469838361067f565b610471610683565b61047b83836106ee565b5050600160008190555050565b60006007544211905090565b6000600354905090565b60055481565b6000600454905090565b600a6020528060005260406000206000915090505481565b600060065442101580156104dc57506007544211155b905090565b6000600754905090565b60006005546104f86104a4565b10610506576001905061050b565b600090505b90565b6000600260009054906101000a900473ffffffffffffffffffffffffffffffffffffffff16905090565b60085481565b6000600654905090565b60095481565b6000600160009054906101000a900473ffffffffffffffffffffffffffffffffffffffff16905090565b61058282826106f2565b6000600a60008473ffffffffffffffffffffffffffffffffffffffff1673ffffffffffffffffffffffffffffffffffffffff168152602001908152602001600020549050600082826105d49190610fc7565b905060085481101580156105ea57506009548111155b6105f357600080fd5b80600a60008673ffffffffffffffffffffffffffffffffffffffff1673ffffffffffffffffffffffffffffffffffffffff1681526020019081526020016000208190555050505050565b60006106546003548361074790919063ffffffff16565b9050919050565b600081836106699190610fc7565b905092915050565b61067b828261075d565b5050565b5050565b600260009054906101000a900473ffffffffffffffffffffffffffffffffffffffff1673ffffffffffffffffffffffffffffffffffffffff166108fc349081150290604051600060405180830381858888f193505050501580156106eb573d6000803e3d6000fd5b50565b5050565b6106fa6104c6565b610739576040517f08c379a000000000000000000000000000000000000000000000000000000000815260040161073090610e71565b60405180910390fd5b61074382826107ae565b5050565b60008183610755919061101d565b905092915050565b6107aa8282600160009054906101000a900473ffffffffffffffffffffffffffffffffffffffff1673ffffffffffffffffffffffffffffffffffffffff166107dd9092919063ffffffff16565b5050565b6107b88282610863565b600554816107c46104a4565b6107ce9190610fc7565b11156107d957600080fd5b5050565b61085e8363a9059cbb60e01b84846040516024016107fc929190610df0565b604051602081830303815290604052907bffffffffffffffffffffffffffffffffffffffffffffffffffffffff19166020820180517bffffffffffffffffffffffffffffffffffffffffffffffffffffffff838183161783525050505061091b565b505050565b600073ffffffffffffffffffffffffffffffffffffffff168273ffffffffffffffffffffffffffffffffffffffff1614156108d3576040517f08c379a00000000000000000000000000000000000000000000000000000000081526004016108ca90610eb1565b60405180910390fd5b6000811415610917576040517f08c379a000000000000000000000000000000000000000000000000000000000815260040161090e90610f31565b60405180910390fd5b5050565b600061097d826040518060400160405280602081526020017f5361666545524332303a206c6f772d6c6576656c2063616c6c206661696c65648152508573ffffffffffffffffffffffffffffffffffffffff166109e29092919063ffffffff16565b90506000815111156109dd578080602001905181019061099d9190610beb565b6109dc576040517f08c379a00000000000000000000000000000000000000000000000000000000081526004016109d390610ef1565b60405180910390fd5b5b505050565b60606109f184846000856109fa565b90509392505050565b606082471015610a3f576040517f08c379a0000000000000000000000000000000000000000000000000000000008152600401610a3690610e91565b60405180910390fd5b610a4885610b0e565b610a87576040517f08c379a0000000000000000000000000000000000000000000000000000000008152600401610a7e90610ed1565b60405180910390fd5b6000808673ffffffffffffffffffffffffffffffffffffffff168587604051610ab09190610dbe565b60006040518083038185875af1925050503d8060008114610aed576040519150601f19603f3d011682016040523d82523d6000602084013e610af2565b606091505b5091509150610b02828286610b31565b92505050949350505050565b6000808273ffffffffffffffffffffffffffffffffffffffff163b119050919050565b60608315610b4157829050610b91565b600083511115610b545782518084602001fd5b816040517f08c379a0000000000000000000000000000000000000000000000000000000008152600401610b889190610e4f565b60405180910390fd5b9392505050565b600081359050610ba7816112f9565b92915050565b600081519050610bbc81611310565b92915050565b600060208284031215610bd457600080fd5b6000610be284828501610b98565b91505092915050565b600060208284031215610bfd57600080fd5b6000610c0b84828501610bad565b91505092915050565b610c1d81611089565b82525050565b610c2c81611077565b82525050565b610c3b8161109b565b82525050565b6000610c4c82610f95565b610c568185610fab565b9350610c668185602086016110f5565b80840191505092915050565b610c7b816110d1565b82525050565b6000610c8c82610fa0565b610c968185610fb6565b9350610ca68185602086016110f5565b610caf81611157565b840191505092915050565b6000610cc7601883610fb6565b9150610cd282611168565b602082019050919050565b6000610cea602683610fb6565b9150610cf582611191565b604082019050919050565b6000610d0d602a83610fb6565b9150610d18826111e0565b604082019050919050565b6000610d30601d83610fb6565b9150610d3b8261122f565b602082019050919050565b6000610d53602a83610fb6565b9150610d5e82611258565b604082019050919050565b6000610d76601f83610fb6565b9150610d81826112a7565b602082019050919050565b6000610d99601983610fb6565b9150610da4826112d0565b602082019050919050565b610db8816110c7565b82525050565b6000610dca8284610c41565b915081905092915050565b6000602082019050610dea6000830184610c14565b92915050565b6000604082019050610e056000830185610c23565b610e126020830184610daf565b9392505050565b6000602082019050610e2e6000830184610c32565b92915050565b6000602082019050610e496000830184610c72565b92915050565b60006020820190508181036000830152610e698184610c81565b905092915050565b60006020820190508181036000830152610e8a81610cba565b9050919050565b60006020820190508181036000830152610eaa81610cdd565b9050919050565b60006020820190508181036000830152610eca81610d00565b9050919050565b60006020820190508181036000830152610eea81610d23565b9050919050565b60006020820190508181036000830152610f0a81610d46565b9050919050565b60006020820190508181036000830152610f2a81610d69565b9050919050565b60006020820190508181036000830152610f4a81610d8c565b9050919050565b6000602082019050610f666000830184610daf565b92915050565b6000604082019050610f816000830185610daf565b610f8e6020830184610daf565b9392505050565b600081519050919050565b600081519050919050565b600081905092915050565b600082825260208201905092915050565b6000610fd2826110c7565b9150610fdd836110c7565b9250827fffffffffffffffffffffffffffffffffffffffffffffffffffffffffffffffff0382111561101257611011611128565b5b828201905092915050565b6000611028826110c7565b9150611033836110c7565b9250817fffffffffffffffffffffffffffffffffffffffffffffffffffffffffffffffff048311821515161561106c5761106b611128565b5b828202905092915050565b6000611082826110a7565b9050919050565b6000611094826110a7565b9050919050565b60008115159050919050565b600073ffffffffffffffffffffffffffffffffffffffff82169050919050565b6000819050919050565b60006110dc826110e3565b9050919050565b60006110ee826110a7565b9050919050565b60005b838110156111135780820151818401526020810190506110f8565b83811115611122576000848401525b50505050565b7f4e487b7100000000000000000000000000000000000000000000000000000000600052601160045260246000fd5b6000601f19601f8301169050919050565b7f54696d656443726f776473616c653a206e6f74206f70656e0000000000000000600082015250565b7f416464726573733a20696e73756666696369656e742062616c616e636520666f60008201527f722063616c6c0000000000000000000000000000000000000000000000000000602082015250565b7f43726f776473616c653a2062656e656669636961727920697320746865207a6560008201527f726f206164647265737300000000000000000000000000000000000000000000602082015250565b7f416464726573733a2063616c6c20746f206e6f6e2d636f6e7472616374000000600082015250565b7f5361666545524332303a204552433230206f7065726174696f6e20646964206e60008201527f6f74207375636365656400000000000000000000000000000000000000000000602082015250565b7f5265656e7472616e637947756172643a207265656e7472616e742063616c6c00600082015250565b7f43726f776473616c653a20776569416d6f756e74206973203000000000000000600082015250565b61130281611077565b811461130d57600080fd5b50565b6113198161109b565b811461132457600080fd5b5056fea264697066735822122068e1e6f596c9d8c5253e767c2726d29954404bb4810bcda5705995c7eef2f82564736f6c63430008040033",
  "immutableReferences": {},
  "source": "//SPDX-License-Identifier:UNLICENSED\r\npragma solidity ^0.8.4;\r\n\r\nimport \"./Crowdsale.sol\";\r\nimport \"./CappedCrowdsale.sol\";\r\nimport \"./MintedCrowdsale.sol\";\r\n\r\nimport \"./TimedCrowdsale.sol\";\r\n\r\n// import \"openzeppelin-solidity/contracts/crowdsale/distribution/RefundableCrowdsale.sol\";\r\n\r\ncontract ExampleTokenCrowdsale is Crowdsale, CappedCrowdsale, TimedCrowdsale {\r\n    uint256 public investorMinCap = 20000000000000000000;\r\n    uint256 public investorHardCap = 50000000000000000000;\r\n\r\n    mapping(address => uint256) public contributions;\r\n\r\n    constructor(\r\n        uint256 _rate,\r\n        address payable _wallet,\r\n        ERC20 _token,\r\n        uint256 _cap,\r\n        uint256 _openingTime,\r\n        uint256 _closingTime\r\n    )\r\n        public\r\n        Crowdsale(_rate, _wallet, _token)\r\n        CappedCrowdsale(_cap)\r\n        TimedCrowdsale(_openingTime, _closingTime)\r\n    {}\r\n\r\n    function _preValidatePurchase(address _beneficiary, uint256 _weiAmount)\r\n        internal\r\n        override(Crowdsale, CappedCrowdsale, TimedCrowdsale)\r\n    {\r\n        super._preValidatePurchase(_beneficiary, _weiAmount);\r\n        uint256 _existingContribution = contributions[_beneficiary];\r\n        uint256 _newContribution = _existingContribution + (_weiAmount);\r\n        require(\r\n            _newContribution >= investorMinCap &&\r\n                _newContribution <= investorHardCap\r\n        );\r\n        contributions[_beneficiary] = _newContribution;\r\n    }\r\n}\r\n",
  "sourcePath": "C:\\Users\\MY\\Desktop\\Rapid_Projects\\ICO\\contracts\\ExampleTokenCrowdsale.sol",
  "compiler": {
    "name": "solc",
    "version": "0.8.4+commit.c7e474f2.Emscripten.clang"
  },
  "schemaVersion": "3.4.7",
  "updatedAt": "2022-05-04T05:03:15.073Z",
  "networkType": "ethereum",
  "devdoc": {
    "kind": "dev",
    "methods": {
      "buyTokens(address)": {
        "details": "low level token purchase ***DO NOT OVERRIDE*** This function has a non-reentrancy guard, so it shouldn't be called by another `nonReentrant` function.",
        "params": {
          "beneficiary": "Recipient of the token purchase"
        }
      },
      "capReached()": {
        "details": "Checks whether the cap has been reached.",
        "returns": {
          "_0": "Whether the cap was reached"
        }
      },
      "closingTime()": {
        "returns": {
          "_0": "the crowdsale closing time."
        }
      },
      "hasClosed()": {
        "details": "Checks whether the period in which the crowdsale is open has already elapsed.",
        "returns": {
          "_0": "Whether crowdsale period has elapsed"
        }
      },
      "isOpen()": {
        "returns": {
          "_0": "true if the crowdsale is open, false otherwise."
        }
      },
      "openingTime()": {
        "returns": {
          "_0": "the crowdsale opening time."
        }
      },
      "rate()": {
        "returns": {
          "_0": "the number of token units a buyer gets per wei."
        }
      },
      "token()": {
        "returns": {
          "_0": "the token being sold."
        }
      },
      "wallet()": {
        "returns": {
          "_0": "the address where funds are collected."
        }
      },
      "weiRaised()": {
        "returns": {
          "_0": "the amount of wei raised."
        }
      }
    },
    "version": 1
  },
  "userdoc": {
    "events": {
      "TimedCrowdsaleExtended(uint256,uint256)": {
        "notice": "Event for crowdsale extending"
      },
      "TokensPurchased(address,address,uint256,uint256)": {
        "notice": "Event for token purchase logging"
      }
    },
    "kind": "user",
    "methods": {},
    "version": 1
  }
}