{
  "contractName": "RefundVault",
  "abi": [
    {
      "inputs": [
        {
          "internalType": "address payable",
          "name": "_wallet",
          "type": "address"
        }
      ],
      "stateMutability": "nonpayable",
      "type": "constructor"
    },
    {
      "anonymous": false,
      "inputs": [],
      "name": "Closed",
      "type": "event"
    },
    {
      "anonymous": false,
      "inputs": [
        {
          "indexed": true,
          "internalType": "address",
          "name": "previousOwner",
          "type": "address"
        },
        {
          "indexed": true,
          "internalType": "address",
          "name": "newOwner",
          "type": "address"
        }
      ],
      "name": "OwnershipTransferred",
      "type": "event"
    },
    {
      "anonymous": false,
      "inputs": [
        {
          "indexed": true,
          "internalType": "address",
          "name": "beneficiary",
          "type": "address"
        },
        {
          "indexed": false,
          "internalType": "uint256",
          "name": "weiAmount",
          "type": "uint256"
        }
      ],
      "name": "Refunded",
      "type": "event"
    },
    {
      "anonymous": false,
      "inputs": [],
      "name": "RefundsEnabled",
      "type": "event"
    },
    {
      "inputs": [
        {
          "internalType": "address",
          "name": "",
          "type": "address"
        }
      ],
      "name": "deposited",
      "outputs": [
        {
          "internalType": "uint256",
          "name": "",
          "type": "uint256"
        }
      ],
      "stateMutability": "view",
      "type": "function"
    },
    {
      "inputs": [],
      "name": "owner",
      "outputs": [
        {
          "internalType": "address",
          "name": "",
          "type": "address"
        }
      ],
      "stateMutability": "view",
      "type": "function"
    },
    {
      "inputs": [],
      "name": "state",
      "outputs": [
        {
          "internalType": "enum RefundVault.State",
          "name": "",
          "type": "uint8"
        }
      ],
      "stateMutability": "view",
      "type": "function"
    },
    {
      "inputs": [
        {
          "internalType": "address",
          "name": "newOwner",
          "type": "address"
        }
      ],
      "name": "transferOwnership",
      "outputs": [],
      "stateMutability": "nonpayable",
      "type": "function"
    },
    {
      "inputs": [],
      "name": "wallet",
      "outputs": [
        {
          "internalType": "address payable",
          "name": "",
          "type": "address"
        }
      ],
      "stateMutability": "view",
      "type": "function"
    },
    {
      "inputs": [
        {
          "internalType": "address",
          "name": "investor",
          "type": "address"
        }
      ],
      "name": "deposit",
      "outputs": [],
      "stateMutability": "payable",
      "type": "function"
    },
    {
      "inputs": [],
      "name": "close",
      "outputs": [],
      "stateMutability": "nonpayable",
      "type": "function"
    },
    {
      "inputs": [],
      "name": "enableRefunds",
      "outputs": [],
      "stateMutability": "nonpayable",
      "type": "function"
    },
    {
      "inputs": [
        {
          "internalType": "address payable",
          "name": "investor",
          "type": "address"
        }
      ],
      "name": "refund",
      "outputs": [],
      "stateMutability": "nonpayable",
      "type": "function"
    }
  ],
  "bytecode": "0x608060405234801561001057600080fd5b50604051610e97380380610e9783398181016040528101906100329190610159565b336000806101000a81548173ffffffffffffffffffffffffffffffffffffffff021916908373ffffffffffffffffffffffffffffffffffffffff160217905550600073ffffffffffffffffffffffffffffffffffffffff168173ffffffffffffffffffffffffffffffffffffffff1614156100ac57600080fd5b80600260006101000a81548173ffffffffffffffffffffffffffffffffffffffff021916908373ffffffffffffffffffffffffffffffffffffffff1602179055506000600260146101000a81548160ff02191690836002811115610139577f4e487b7100000000000000000000000000000000000000000000000000000000600052602160045260246000fd5b0217905550506101cb565b600081519050610153816101b4565b92915050565b60006020828403121561016b57600080fd5b600061017984828501610144565b91505092915050565b600061018d82610194565b9050919050565b600073ffffffffffffffffffffffffffffffffffffffff82169050919050565b6101bd81610182565b81146101c857600080fd5b50565b610cbd806101da6000396000f3fe6080604052600436106100865760003560e01c8063c19d93fb11610059578063c19d93fb1461010f578063cb13cddb1461013a578063f2fde38b14610177578063f340fa01146101a0578063fa89401a146101bc57610086565b806343d726d61461008b578063521eb273146100a25780638c52dc41146100cd5780638da5cb5b146100e4575b600080fd5b34801561009757600080fd5b506100a06101e5565b005b3480156100ae57600080fd5b506100b76103b0565b6040516100c49190610acd565b60405180910390f35b3480156100d957600080fd5b506100e26103d6565b005b3480156100f057600080fd5b506100f9610539565b6040516101069190610ab2565b60405180910390f35b34801561011b57600080fd5b5061012461055d565b6040516101319190610ae8565b60405180910390f35b34801561014657600080fd5b50610161600480360381019061015c9190610a24565b610570565b60405161016e9190610b03565b60405180910390f35b34801561018357600080fd5b5061019e60048036038101906101999190610a24565b610588565b005b6101ba60048036038101906101b59190610a24565b6106d7565b005b3480156101c857600080fd5b506101e360048036038101906101de9190610a4d565b61084c565b005b60008054906101000a900473ffffffffffffffffffffffffffffffffffffffff1673ffffffffffffffffffffffffffffffffffffffff163373ffffffffffffffffffffffffffffffffffffffff161461023d57600080fd5b60006002811115610277577f4e487b7100000000000000000000000000000000000000000000000000000000600052602160045260246000fd5b600260149054906101000a900460ff1660028111156102bf577f4e487b7100000000000000000000000000000000000000000000000000000000600052602160045260246000fd5b146102c957600080fd5b60028060146101000a81548160ff02191690836002811115610314577f4e487b7100000000000000000000000000000000000000000000000000000000600052602160045260246000fd5b02179055507f1cdde67b72a90f19919ac732a437ac2f7a10fc128d28c2a6e525d89ce5cd9d3a60405160405180910390a1600260009054906101000a900473ffffffffffffffffffffffffffffffffffffffff1673ffffffffffffffffffffffffffffffffffffffff166108fc479081150290604051600060405180830381858888f193505050501580156103ad573d6000803e3d6000fd5b50565b600260009054906101000a900473ffffffffffffffffffffffffffffffffffffffff1681565b60008054906101000a900473ffffffffffffffffffffffffffffffffffffffff1673ffffffffffffffffffffffffffffffffffffffff163373ffffffffffffffffffffffffffffffffffffffff161461042e57600080fd5b60006002811115610468577f4e487b7100000000000000000000000000000000000000000000000000000000600052602160045260246000fd5b600260149054906101000a900460ff1660028111156104b0577f4e487b7100000000000000000000000000000000000000000000000000000000600052602160045260246000fd5b146104ba57600080fd5b6001600260146101000a81548160ff02191690836002811115610506577f4e487b7100000000000000000000000000000000000000000000000000000000600052602160045260246000fd5b02179055507f599d8e5a83cffb867d051598c4d70e805d59802d8081c1c7d6dffc5b6aca2b8960405160405180910390a1565b60008054906101000a900473ffffffffffffffffffffffffffffffffffffffff1681565b600260149054906101000a900460ff1681565b60016020528060005260406000206000915090505481565b60008054906101000a900473ffffffffffffffffffffffffffffffffffffffff1673ffffffffffffffffffffffffffffffffffffffff163373ffffffffffffffffffffffffffffffffffffffff16146105e057600080fd5b600073ffffffffffffffffffffffffffffffffffffffff168173ffffffffffffffffffffffffffffffffffffffff16141561061a57600080fd5b8073ffffffffffffffffffffffffffffffffffffffff1660008054906101000a900473ffffffffffffffffffffffffffffffffffffffff1673ffffffffffffffffffffffffffffffffffffffff167f8be0079c531659141344cd1fd0a4f28419497f9722a3daafe3b4186f6b6457e060405160405180910390a3806000806101000a81548173ffffffffffffffffffffffffffffffffffffffff021916908373ffffffffffffffffffffffffffffffffffffffff16021790555050565b60008054906101000a900473ffffffffffffffffffffffffffffffffffffffff1673ffffffffffffffffffffffffffffffffffffffff163373ffffffffffffffffffffffffffffffffffffffff161461072f57600080fd5b60006002811115610769577f4e487b7100000000000000000000000000000000000000000000000000000000600052602160045260246000fd5b600260149054906101000a900460ff1660028111156107b1577f4e487b7100000000000000000000000000000000000000000000000000000000600052602160045260246000fd5b146107bb57600080fd5b34600160008373ffffffffffffffffffffffffffffffffffffffff1673ffffffffffffffffffffffffffffffffffffffff168152602001908152602001600020546108069190610b1e565b600160008373ffffffffffffffffffffffffffffffffffffffff1673ffffffffffffffffffffffffffffffffffffffff1681526020019081526020016000208190555050565b60016002811115610886577f4e487b7100000000000000000000000000000000000000000000000000000000600052602160045260246000fd5b600260149054906101000a900460ff1660028111156108ce577f4e487b7100000000000000000000000000000000000000000000000000000000600052602160045260246000fd5b146108d857600080fd5b6000600160008373ffffffffffffffffffffffffffffffffffffffff1673ffffffffffffffffffffffffffffffffffffffff1681526020019081526020016000205490506000600160008473ffffffffffffffffffffffffffffffffffffffff1673ffffffffffffffffffffffffffffffffffffffff168152602001908152602001600020819055508173ffffffffffffffffffffffffffffffffffffffff166108fc829081150290604051600060405180830381858888f193505050501580156109a7573d6000803e3d6000fd5b508173ffffffffffffffffffffffffffffffffffffffff167fd7dee2702d63ad89917b6a4da9981c90c4d24f8c2bdfd64c604ecae57d8d0651826040516109ee9190610b03565b60405180910390a25050565b600081359050610a0981610c59565b92915050565b600081359050610a1e81610c70565b92915050565b600060208284031215610a3657600080fd5b6000610a44848285016109fa565b91505092915050565b600060208284031215610a5f57600080fd5b6000610a6d84828501610a0f565b91505092915050565b610a7f81610b86565b82525050565b610a8e81610b74565b82525050565b610a9d81610bd5565b82525050565b610aac81610bcb565b82525050565b6000602082019050610ac76000830184610a85565b92915050565b6000602082019050610ae26000830184610a76565b92915050565b6000602082019050610afd6000830184610a94565b92915050565b6000602082019050610b186000830184610aa3565b92915050565b6000610b2982610bcb565b9150610b3483610bcb565b9250827fffffffffffffffffffffffffffffffffffffffffffffffffffffffffffffffff03821115610b6957610b68610be7565b5b828201905092915050565b6000610b7f82610bab565b9050919050565b6000610b9182610bab565b9050919050565b6000819050610ba682610c45565b919050565b600073ffffffffffffffffffffffffffffffffffffffff82169050919050565b6000819050919050565b6000610be082610b98565b9050919050565b7f4e487b7100000000000000000000000000000000000000000000000000000000600052601160045260246000fd5b7f4e487b7100000000000000000000000000000000000000000000000000000000600052602160045260246000fd5b60038110610c5657610c55610c16565b5b50565b610c6281610b74565b8114610c6d57600080fd5b50565b610c7981610b86565b8114610c8457600080fd5b5056fea264697066735822122035b3631a49abf36a80b19eb95f833358801acb2f3f5b283d57a737f6da0c8c2964736f6c63430008040033",
  "immutableReferences": {},
  "source": "pragma solidity ^0.8.0;\n\nimport \"./Ownable.sol\";\n\n/**\n * @title RefundVault\n * @dev This contract is used for storing funds while a crowdsale\n * is in progress. Supports refunding the money if crowdsale fails,\n * and forwarding it if crowdsale is successful.\n */\ncontract RefundVault is Ownable {\n    enum State {\n        Active,\n        Refunding,\n        Closed\n    }\n\n    mapping(address => uint256) public deposited;\n    address payable public wallet;\n    State public state;\n\n    event Closed();\n    event RefundsEnabled();\n    event Refunded(address indexed beneficiary, uint256 weiAmount);\n\n    constructor(address payable _wallet) {\n        require(_wallet != address(0));\n        wallet = _wallet;\n        state = State.Active;\n    }\n\n    function deposit(address investor) public payable onlyOwner {\n        require(state == State.Active);\n        deposited[investor] = deposited[investor] + (msg.value);\n    }\n\n    function close() public onlyOwner {\n        require(state == State.Active);\n        state = State.Closed;\n        emit Closed();\n        wallet.transfer(address(this).balance);\n    }\n\n    function enableRefunds() public onlyOwner {\n        require(state == State.Active);\n        state = State.Refunding;\n        emit RefundsEnabled();\n    }\n\n    function refund(address payable investor) public {\n        require(state == State.Refunding);\n        uint256 depositedValue = deposited[investor];\n        deposited[investor] = 0;\n        investor.transfer(depositedValue);\n        emit Refunded(investor, depositedValue);\n    }\n}\n",
  "sourcePath": "C:\\Users\\MY\\Desktop\\Rapid_Projects\\ICO\\contracts\\crowdsale\\RefundVault.sol",
  "compiler": {
    "name": "solc",
    "version": "0.8.4+commit.c7e474f2.Emscripten.clang"
  },
  "schemaVersion": "3.4.7",
  "updatedAt": "2022-05-05T11:37:39.640Z",
  "devdoc": {
    "details": "This contract is used for storing funds while a crowdsale is in progress. Supports refunding the money if crowdsale fails, and forwarding it if crowdsale is successful.",
    "kind": "dev",
    "methods": {
      "transferOwnership(address)": {
        "details": "Allows the current owner to transfer control of the contract to a newOwner.",
        "params": {
          "newOwner": "The address to transfer ownership to."
        }
      }
    },
    "title": "RefundVault",
    "version": 1
  },
  "userdoc": {
    "kind": "user",
    "methods": {},
    "version": 1
  }
}