{
  "contractName": "Secondary",
  "abi": [
    {
      "inputs": [],
      "stateMutability": "nonpayable",
      "type": "constructor"
    },
    {
      "anonymous": false,
      "inputs": [
        {
          "indexed": false,
          "internalType": "address",
          "name": "recipient",
          "type": "address"
        }
      ],
      "name": "PrimaryTransferred",
      "type": "event"
    },
    {
      "inputs": [],
      "name": "primary",
      "outputs": [
        {
          "internalType": "address",
          "name": "",
          "type": "address"
        }
      ],
      "stateMutability": "view",
      "type": "function"
    },
    {
      "inputs": [
        {
          "internalType": "address",
          "name": "recipient",
          "type": "address"
        }
      ],
      "name": "transferPrimary",
      "outputs": [],
      "stateMutability": "nonpayable",
      "type": "function"
    }
  ],
  "bytecode": "0x608060405234801561001057600080fd5b5060006100216100a060201b60201c565b9050806000806101000a81548173ffffffffffffffffffffffffffffffffffffffff021916908373ffffffffffffffffffffffffffffffffffffffff1602179055507f4101e71e974f68df5e9730cc223280b41654676bbb052cdcc735c3337e64d2d98160405161009291906100b7565b60405180910390a150610104565b600033905090565b6100b1816100d2565b82525050565b60006020820190506100cc60008301846100a8565b92915050565b60006100dd826100e4565b9050919050565b600073ffffffffffffffffffffffffffffffffffffffff82169050919050565b610441806101136000396000f3fe608060405234801561001057600080fd5b50600436106100365760003560e01c80632348238c1461003b578063c6dbdf6114610057575b600080fd5b6100556004803603810190610050919061023a565b610075565b005b61005f6101f4565b60405161006c91906102b8565b60405180910390f35b60008054906101000a900473ffffffffffffffffffffffffffffffffffffffff1673ffffffffffffffffffffffffffffffffffffffff166100b461021d565b73ffffffffffffffffffffffffffffffffffffffff161461010a576040517f08c379a0000000000000000000000000000000000000000000000000000000008152600401610101906102f3565b60405180910390fd5b600073ffffffffffffffffffffffffffffffffffffffff168173ffffffffffffffffffffffffffffffffffffffff16141561017a576040517f08c379a0000000000000000000000000000000000000000000000000000000008152600401610171906102d3565b60405180910390fd5b806000806101000a81548173ffffffffffffffffffffffffffffffffffffffff021916908373ffffffffffffffffffffffffffffffffffffffff1602179055507f4101e71e974f68df5e9730cc223280b41654676bbb052cdcc735c3337e64d2d9816040516101e991906102b8565b60405180910390a150565b60008060009054906101000a900473ffffffffffffffffffffffffffffffffffffffff16905090565b600033905090565b600081359050610234816103f4565b92915050565b60006020828403121561024c57600080fd5b600061025a84828501610225565b91505092915050565b61026c81610324565b82525050565b600061027f602a83610313565b915061028a82610356565b604082019050919050565b60006102a2602c83610313565b91506102ad826103a5565b604082019050919050565b60006020820190506102cd6000830184610263565b92915050565b600060208201905081810360008301526102ec81610272565b9050919050565b6000602082019050818103600083015261030c81610295565b9050919050565b600082825260208201905092915050565b600061032f82610336565b9050919050565b600073ffffffffffffffffffffffffffffffffffffffff82169050919050565b7f5365636f6e646172793a206e6577207072696d61727920697320746865207a6560008201527f726f206164647265737300000000000000000000000000000000000000000000602082015250565b7f5365636f6e646172793a2063616c6c6572206973206e6f74207468652070726960008201527f6d617279206163636f756e740000000000000000000000000000000000000000602082015250565b6103fd81610324565b811461040857600080fd5b5056fea264697066735822122040f3fd1dff0b75fdebd87015cf53af6ca610d75f9990542bd67f053184d020ae64736f6c63430008040033",
  "immutableReferences": {},
  "source": "pragma solidity ^0.8.0;\nimport \"@openzeppelin/contracts/utils/Context.sol\";\n\n/**\n * @dev A Secondary contract can only be used by its primary account (the one that created it).\n */\ncontract Secondary is Context {\n    address private _primary;\n\n    /**\n     * @dev Emitted when the primary contract changes.\n     */\n    event PrimaryTransferred(address recipient);\n\n    /**\n     * @dev Sets the primary account to the one that is creating the Secondary contract.\n     */\n    constructor() {\n        address msgSender = _msgSender();\n        _primary = msgSender;\n        emit PrimaryTransferred(msgSender);\n    }\n\n    /**\n     * @dev Reverts if called from any account other than the primary.\n     */\n    modifier onlyPrimary() {\n        require(\n            _msgSender() == _primary,\n            \"Secondary: caller is not the primary account\"\n        );\n        _;\n    }\n\n    /**\n     * @return the address of the primary.\n     */\n    function primary() public view returns (address) {\n        return _primary;\n    }\n\n    /**\n     * @dev Transfers contract to a new primary.\n     * @param recipient The address of new primary.\n     */\n    function transferPrimary(address recipient) public onlyPrimary {\n        require(\n            recipient != address(0),\n            \"Secondary: new primary is the zero address\"\n        );\n        _primary = recipient;\n        emit PrimaryTransferred(recipient);\n    }\n}\n",
  "sourcePath": "C:\\Users\\MY\\Desktop\\Rapid_Projects\\ICO\\contracts\\ownership\\Secondary.sol",
  "compiler": {
    "name": "solc",
    "version": "0.8.4+commit.c7e474f2.Emscripten.clang"
  },
  "schemaVersion": "3.4.7",
  "updatedAt": "2022-05-04T12:51:00.669Z",
  "devdoc": {
    "details": "A Secondary contract can only be used by its primary account (the one that created it).",
    "events": {
      "PrimaryTransferred(address)": {
        "details": "Emitted when the primary contract changes."
      }
    },
    "kind": "dev",
    "methods": {
      "constructor": {
        "details": "Sets the primary account to the one that is creating the Secondary contract."
      },
      "primary()": {
        "returns": {
          "_0": "the address of the primary."
        }
      },
      "transferPrimary(address)": {
        "details": "Transfers contract to a new primary.",
        "params": {
          "recipient": "The address of new primary."
        }
      }
    },
    "version": 1
  },
  "userdoc": {
    "kind": "user",
    "methods": {},
    "version": 1
  }
}